{
  "contractName": "EnumerableAddressSetMock",
  "abi": [
    {
      "anonymous": false,
      "inputs": [
        {
          "indexed": false,
          "internalType": "bool",
          "name": "result",
          "type": "bool"
        }
      ],
      "name": "OperationResult",
      "type": "event"
    },
    {
      "inputs": [
        {
          "internalType": "address",
          "name": "value",
          "type": "address"
        }
      ],
      "name": "contains",
      "outputs": [
        {
          "internalType": "bool",
          "name": "",
          "type": "bool"
        }
      ],
      "stateMutability": "view",
      "type": "function"
    },
    {
      "inputs": [
        {
          "internalType": "address",
          "name": "value",
          "type": "address"
        }
      ],
      "name": "add",
      "outputs": [],
      "stateMutability": "nonpayable",
      "type": "function"
    },
    {
      "inputs": [
        {
          "internalType": "address",
          "name": "value",
          "type": "address"
        }
      ],
      "name": "remove",
      "outputs": [],
      "stateMutability": "nonpayable",
      "type": "function"
    },
    {
      "inputs": [],
      "name": "length",
      "outputs": [
        {
          "internalType": "uint256",
          "name": "",
          "type": "uint256"
        }
      ],
      "stateMutability": "view",
      "type": "function"
    },
    {
      "inputs": [
        {
          "internalType": "uint256",
          "name": "index",
          "type": "uint256"
        }
      ],
      "name": "at",
      "outputs": [
        {
          "internalType": "address",
          "name": "",
          "type": "address"
        }
      ],
      "stateMutability": "view",
      "type": "function"
    },
    {
      "inputs": [],
      "name": "values",
      "outputs": [
        {
          "internalType": "address[]",
          "name": "",
          "type": "address[]"
        }
      ],
      "stateMutability": "view",
      "type": "function"
    }
  ],
  "bytecode": "0x608060405234801561001057600080fd5b506108dd806100206000396000f3fe608060405234801561001057600080fd5b50600436106100625760003560e01c80630a3b0a4f146100675780631f7b6d321461008357806329092d0e146100a15780635dbe47e8146100bd578063971217b7146100ed578063e0886f901461010b575b600080fd5b610081600480360381019061007c919061061e565b61013b565b005b61008b61018e565b604051610098919061077a565b60405180910390f35b6100bb60048036038101906100b6919061061e565b61019f565b005b6100d760048036038101906100d2919061061e565b6101f2565b6040516100e4919061075f565b60405180910390f35b6100f561020f565b604051610102919061073d565b60405180910390f35b61012560048036038101906101209190610647565b610220565b6040516101329190610722565b60405180910390f35b600061015182600061023d90919063ffffffff16565b90507fed9840e0775590557ad736875d96c95cf1458b766335f74339951a32c82a9e3381604051610182919061075f565b60405180910390a15050565b600061019a600061026d565b905090565b60006101b582600061028290919063ffffffff16565b90507fed9840e0775590557ad736875d96c95cf1458b766335f74339951a32c82a9e33816040516101e6919061075f565b60405180910390a15050565b60006102088260006102b290919063ffffffff16565b9050919050565b606061021b60006102e2565b905090565b600061023682600061030390919063ffffffff16565b9050919050565b6000610265836000018373ffffffffffffffffffffffffffffffffffffffff1660001b61031d565b905092915050565b600061027b8260000161038d565b9050919050565b60006102aa836000018373ffffffffffffffffffffffffffffffffffffffff1660001b61039e565b905092915050565b60006102da836000018373ffffffffffffffffffffffffffffffffffffffff1660001b610524565b905092915050565b606060006102f283600001610547565b905060608190508092505050919050565b600061031283600001836105a3565b60001c905092915050565b60006103298383610524565b610382578260000182908060018154018082558091505060019003906000526020600020016000909190919091505582600001805490508360010160008481526020019081526020016000208190555060019050610387565b600090505b92915050565b600081600001805490509050919050565b600080836001016000848152602001908152602001600020549050600081146105185760006001826103d091906107ce565b90506000600186600001805490506103e891906107ce565b90508181146104a357600086600001828154811061042f577f4e487b7100000000000000000000000000000000000000000000000000000000600052603260045260246000fd5b9060005260206000200154905080876000018481548110610479577f4e487b7100000000000000000000000000000000000000000000000000000000600052603260045260246000fd5b90600052602060002001819055508387600101600083815260200190815260200160002081905550505b856000018054806104dd577f4e487b7100000000000000000000000000000000000000000000000000000000600052603160045260246000fd5b60019003818190600052602060002001600090559055856001016000868152602001908152602001600020600090556001935050505061051e565b60009150505b92915050565b600080836001016000848152602001908152602001600020541415905092915050565b60608160000180548060200260200160405190810160405280929190818152602001828054801561059757602002820191906000526020600020905b815481526020019060010190808311610583575b50505050509050919050565b60008260000182815481106105e1577f4e487b7100000000000000000000000000000000000000000000000000000000600052603260045260246000fd5b9060005260206000200154905092915050565b60008135905061060381610879565b92915050565b60008135905061061881610890565b92915050565b60006020828403121561063057600080fd5b600061063e848285016105f4565b91505092915050565b60006020828403121561065957600080fd5b600061066784828501610609565b91505092915050565b600061067c8383610688565b60208301905092915050565b61069181610802565b82525050565b6106a081610802565b82525050565b60006106b1826107a5565b6106bb81856107bd565b93506106c683610795565b8060005b838110156106f75781516106de8882610670565b97506106e9836107b0565b9250506001810190506106ca565b5085935050505092915050565b61070d81610814565b82525050565b61071c81610840565b82525050565b60006020820190506107376000830184610697565b92915050565b6000602082019050818103600083015261075781846106a6565b905092915050565b60006020820190506107746000830184610704565b92915050565b600060208201905061078f6000830184610713565b92915050565b6000819050602082019050919050565b600081519050919050565b6000602082019050919050565b600082825260208201905092915050565b60006107d982610840565b91506107e483610840565b9250828210156107f7576107f661084a565b5b828203905092915050565b600061080d82610820565b9050919050565b60008115159050919050565b600073ffffffffffffffffffffffffffffffffffffffff82169050919050565b6000819050919050565b7f4e487b7100000000000000000000000000000000000000000000000000000000600052601160045260246000fd5b61088281610802565b811461088d57600080fd5b50565b61089981610840565b81146108a457600080fd5b5056fea264697066735822122024fd4731e2dc3e99f22c22beae591e5810f885d511198978c5df99902f29cffc64736f6c63430008020033",
  "immutableReferences": {},
  "source": "// SPDX-License-Identifier: MIT\r\n\r\npragma solidity ^0.8.0;\r\n\r\nimport \"../utils/structs/EnumerableSet.sol\";\r\n\r\n// Bytes32Set\r\ncontract EnumerableBytes32SetMock {\r\n    using EnumerableSet for EnumerableSet.Bytes32Set;\r\n\r\n    event OperationResult(bool result);\r\n\r\n    EnumerableSet.Bytes32Set private _set;\r\n\r\n    function contains(bytes32 value) public view returns (bool) {\r\n        return _set.contains(value);\r\n    }\r\n\r\n    function add(bytes32 value) public {\r\n        bool result = _set.add(value);\r\n        emit OperationResult(result);\r\n    }\r\n\r\n    function remove(bytes32 value) public {\r\n        bool result = _set.remove(value);\r\n        emit OperationResult(result);\r\n    }\r\n\r\n    function length() public view returns (uint256) {\r\n        return _set.length();\r\n    }\r\n\r\n    function at(uint256 index) public view returns (bytes32) {\r\n        return _set.at(index);\r\n    }\r\n\r\n    function values() public view returns (bytes32[] memory) {\r\n        return _set.values();\r\n    }\r\n}\r\n\r\n// AddressSet\r\ncontract EnumerableAddressSetMock {\r\n    using EnumerableSet for EnumerableSet.AddressSet;\r\n\r\n    event OperationResult(bool result);\r\n\r\n    EnumerableSet.AddressSet private _set;\r\n\r\n    function contains(address value) public view returns (bool) {\r\n        return _set.contains(value);\r\n    }\r\n\r\n    function add(address value) public {\r\n        bool result = _set.add(value);\r\n        emit OperationResult(result);\r\n    }\r\n\r\n    function remove(address value) public {\r\n        bool result = _set.remove(value);\r\n        emit OperationResult(result);\r\n    }\r\n\r\n    function length() public view returns (uint256) {\r\n        return _set.length();\r\n    }\r\n\r\n    function at(uint256 index) public view returns (address) {\r\n        return _set.at(index);\r\n    }\r\n\r\n    function values() public view returns (address[] memory) {\r\n        return _set.values();\r\n    }\r\n}\r\n\r\n// UintSet\r\ncontract EnumerableUintSetMock {\r\n    using EnumerableSet for EnumerableSet.UintSet;\r\n\r\n    event OperationResult(bool result);\r\n\r\n    EnumerableSet.UintSet private _set;\r\n\r\n    function contains(uint256 value) public view returns (bool) {\r\n        return _set.contains(value);\r\n    }\r\n\r\n    function add(uint256 value) public {\r\n        bool result = _set.add(value);\r\n        emit OperationResult(result);\r\n    }\r\n\r\n    function remove(uint256 value) public {\r\n        bool result = _set.remove(value);\r\n        emit OperationResult(result);\r\n    }\r\n\r\n    function length() public view returns (uint256) {\r\n        return _set.length();\r\n    }\r\n\r\n    function at(uint256 index) public view returns (uint256) {\r\n        return _set.at(index);\r\n    }\r\n\r\n    function values() public view returns (uint256[] memory) {\r\n        return _set.values();\r\n    }\r\n}\r\n",
  "sourcePath": "C:\\Users\\Administrator\\Downloads\\lofi_marketplace_frontend\\contracts\\openzeppelin-solidity\\contracts\\mocks\\EnumerableSetMock.sol",
  "compiler": {
    "name": "solc",
    "version": "0.8.2+commit.661d1103.Emscripten.clang"
  },
  "schemaVersion": "3.4.5",
  "updatedAt": "2022-02-21T16:24:46.523Z",
  "devdoc": {
    "kind": "dev",
    "methods": {},
    "version": 1
  },
  "userdoc": {
    "kind": "user",
    "methods": {},
    "version": 1
  }
}