{
  "contractName": "ERC1155SupplyMock",
  "abi": [
    {
      "inputs": [
        {
          "internalType": "string",
          "name": "uri",
          "type": "string"
        }
      ],
      "stateMutability": "nonpayable",
      "type": "constructor"
    },
    {
      "anonymous": false,
      "inputs": [
        {
          "indexed": true,
          "internalType": "address",
          "name": "account",
          "type": "address"
        },
        {
          "indexed": true,
          "internalType": "address",
          "name": "operator",
          "type": "address"
        },
        {
          "indexed": false,
          "internalType": "bool",
          "name": "approved",
          "type": "bool"
        }
      ],
      "name": "ApprovalForAll",
      "type": "event"
    },
    {
      "anonymous": false,
      "inputs": [
        {
          "indexed": true,
          "internalType": "address",
          "name": "operator",
          "type": "address"
        },
        {
          "indexed": true,
          "internalType": "address",
          "name": "from",
          "type": "address"
        },
        {
          "indexed": true,
          "internalType": "address",
          "name": "to",
          "type": "address"
        },
        {
          "indexed": false,
          "internalType": "uint256[]",
          "name": "ids",
          "type": "uint256[]"
        },
        {
          "indexed": false,
          "internalType": "uint256[]",
          "name": "values",
          "type": "uint256[]"
        }
      ],
      "name": "TransferBatch",
      "type": "event"
    },
    {
      "anonymous": false,
      "inputs": [
        {
          "indexed": true,
          "internalType": "address",
          "name": "operator",
          "type": "address"
        },
        {
          "indexed": true,
          "internalType": "address",
          "name": "from",
          "type": "address"
        },
        {
          "indexed": true,
          "internalType": "address",
          "name": "to",
          "type": "address"
        },
        {
          "indexed": false,
          "internalType": "uint256",
          "name": "id",
          "type": "uint256"
        },
        {
          "indexed": false,
          "internalType": "uint256",
          "name": "value",
          "type": "uint256"
        }
      ],
      "name": "TransferSingle",
      "type": "event"
    },
    {
      "anonymous": false,
      "inputs": [
        {
          "indexed": false,
          "internalType": "string",
          "name": "value",
          "type": "string"
        },
        {
          "indexed": true,
          "internalType": "uint256",
          "name": "id",
          "type": "uint256"
        }
      ],
      "name": "URI",
      "type": "event"
    },
    {
      "inputs": [
        {
          "internalType": "address",
          "name": "account",
          "type": "address"
        },
        {
          "internalType": "uint256",
          "name": "id",
          "type": "uint256"
        }
      ],
      "name": "balanceOf",
      "outputs": [
        {
          "internalType": "uint256",
          "name": "",
          "type": "uint256"
        }
      ],
      "stateMutability": "view",
      "type": "function"
    },
    {
      "inputs": [
        {
          "internalType": "address[]",
          "name": "accounts",
          "type": "address[]"
        },
        {
          "internalType": "uint256[]",
          "name": "ids",
          "type": "uint256[]"
        }
      ],
      "name": "balanceOfBatch",
      "outputs": [
        {
          "internalType": "uint256[]",
          "name": "",
          "type": "uint256[]"
        }
      ],
      "stateMutability": "view",
      "type": "function"
    },
    {
      "inputs": [
        {
          "internalType": "address",
          "name": "owner",
          "type": "address"
        },
        {
          "internalType": "uint256",
          "name": "id",
          "type": "uint256"
        },
        {
          "internalType": "uint256",
          "name": "value",
          "type": "uint256"
        }
      ],
      "name": "burn",
      "outputs": [],
      "stateMutability": "nonpayable",
      "type": "function"
    },
    {
      "inputs": [
        {
          "internalType": "address",
          "name": "owner",
          "type": "address"
        },
        {
          "internalType": "uint256[]",
          "name": "ids",
          "type": "uint256[]"
        },
        {
          "internalType": "uint256[]",
          "name": "values",
          "type": "uint256[]"
        }
      ],
      "name": "burnBatch",
      "outputs": [],
      "stateMutability": "nonpayable",
      "type": "function"
    },
    {
      "inputs": [
        {
          "internalType": "uint256",
          "name": "id",
          "type": "uint256"
        }
      ],
      "name": "exists",
      "outputs": [
        {
          "internalType": "bool",
          "name": "",
          "type": "bool"
        }
      ],
      "stateMutability": "view",
      "type": "function"
    },
    {
      "inputs": [
        {
          "internalType": "address",
          "name": "account",
          "type": "address"
        },
        {
          "internalType": "address",
          "name": "operator",
          "type": "address"
        }
      ],
      "name": "isApprovedForAll",
      "outputs": [
        {
          "internalType": "bool",
          "name": "",
          "type": "bool"
        }
      ],
      "stateMutability": "view",
      "type": "function"
    },
    {
      "inputs": [
        {
          "internalType": "address",
          "name": "to",
          "type": "address"
        },
        {
          "internalType": "uint256",
          "name": "id",
          "type": "uint256"
        },
        {
          "internalType": "uint256",
          "name": "value",
          "type": "uint256"
        },
        {
          "internalType": "bytes",
          "name": "data",
          "type": "bytes"
        }
      ],
      "name": "mint",
      "outputs": [],
      "stateMutability": "nonpayable",
      "type": "function"
    },
    {
      "inputs": [
        {
          "internalType": "address",
          "name": "to",
          "type": "address"
        },
        {
          "internalType": "uint256[]",
          "name": "ids",
          "type": "uint256[]"
        },
        {
          "internalType": "uint256[]",
          "name": "values",
          "type": "uint256[]"
        },
        {
          "internalType": "bytes",
          "name": "data",
          "type": "bytes"
        }
      ],
      "name": "mintBatch",
      "outputs": [],
      "stateMutability": "nonpayable",
      "type": "function"
    },
    {
      "inputs": [
        {
          "internalType": "address",
          "name": "from",
          "type": "address"
        },
        {
          "internalType": "address",
          "name": "to",
          "type": "address"
        },
        {
          "internalType": "uint256[]",
          "name": "ids",
          "type": "uint256[]"
        },
        {
          "internalType": "uint256[]",
          "name": "amounts",
          "type": "uint256[]"
        },
        {
          "internalType": "bytes",
          "name": "data",
          "type": "bytes"
        }
      ],
      "name": "safeBatchTransferFrom",
      "outputs": [],
      "stateMutability": "nonpayable",
      "type": "function"
    },
    {
      "inputs": [
        {
          "internalType": "address",
          "name": "from",
          "type": "address"
        },
        {
          "internalType": "address",
          "name": "to",
          "type": "address"
        },
        {
          "internalType": "uint256",
          "name": "id",
          "type": "uint256"
        },
        {
          "internalType": "uint256",
          "name": "amount",
          "type": "uint256"
        },
        {
          "internalType": "bytes",
          "name": "data",
          "type": "bytes"
        }
      ],
      "name": "safeTransferFrom",
      "outputs": [],
      "stateMutability": "nonpayable",
      "type": "function"
    },
    {
      "inputs": [
        {
          "internalType": "address",
          "name": "operator",
          "type": "address"
        },
        {
          "internalType": "bool",
          "name": "approved",
          "type": "bool"
        }
      ],
      "name": "setApprovalForAll",
      "outputs": [],
      "stateMutability": "nonpayable",
      "type": "function"
    },
    {
      "inputs": [
        {
          "internalType": "string",
          "name": "newuri",
          "type": "string"
        }
      ],
      "name": "setURI",
      "outputs": [],
      "stateMutability": "nonpayable",
      "type": "function"
    },
    {
      "inputs": [
        {
          "internalType": "bytes4",
          "name": "interfaceId",
          "type": "bytes4"
        }
      ],
      "name": "supportsInterface",
      "outputs": [
        {
          "internalType": "bool",
          "name": "",
          "type": "bool"
        }
      ],
      "stateMutability": "view",
      "type": "function"
    },
    {
      "inputs": [
        {
          "internalType": "uint256",
          "name": "id",
          "type": "uint256"
        }
      ],
      "name": "totalSupply",
      "outputs": [
        {
          "internalType": "uint256",
          "name": "",
          "type": "uint256"
        }
      ],
      "stateMutability": "view",
      "type": "function"
    },
    {
      "inputs": [
        {
          "internalType": "uint256",
          "name": "",
          "type": "uint256"
        }
      ],
      "name": "uri",
      "outputs": [
        {
          "internalType": "string",
          "name": "",
          "type": "string"
        }
      ],
      "stateMutability": "view",
      "type": "function"
    }
  ],
  "bytecode": "0x60806040523480156200001157600080fd5b5060405162003c6b38038062003c6b833981810160405281019062000037919062000191565b80806200004a816200005360201b60201c565b50505062000346565b80600290805190602001906200006b9291906200006f565b5050565b8280546200007d906200026b565b90600052602060002090601f016020900481019282620000a15760008555620000ed565b82601f10620000bc57805160ff1916838001178555620000ed565b82800160010185558215620000ed579182015b82811115620000ec578251825591602001919060010190620000cf565b5b509050620000fc919062000100565b5090565b5b808211156200011b57600081600090555060010162000101565b5090565b6000620001366200013084620001ff565b620001d6565b9050828152602081018484840111156200014f57600080fd5b6200015c84828562000235565b509392505050565b600082601f8301126200017657600080fd5b8151620001888482602086016200011f565b91505092915050565b600060208284031215620001a457600080fd5b600082015167ffffffffffffffff811115620001bf57600080fd5b620001cd8482850162000164565b91505092915050565b6000620001e2620001f5565b9050620001f08282620002a1565b919050565b6000604051905090565b600067ffffffffffffffff8211156200021d576200021c62000306565b5b620002288262000335565b9050602081019050919050565b60005b838110156200025557808201518184015260208101905062000238565b8381111562000265576000848401525b50505050565b600060028204905060018216806200028457607f821691505b602082108114156200029b576200029a620002d7565b5b50919050565b620002ac8262000335565b810181811067ffffffffffffffff82111715620002ce57620002cd62000306565b5b80604052505050565b7f4e487b7100000000000000000000000000000000000000000000000000000000600052602260045260246000fd5b7f4e487b7100000000000000000000000000000000000000000000000000000000600052604160045260246000fd5b6000601f19601f8301169050919050565b61391580620003566000396000f3fe608060405234801561001057600080fd5b50600436106100f45760003560e01c80634f558e7911610097578063bd85b03911610066578063bd85b03914610291578063e985e9c5146102c1578063f242432a146102f1578063f5298aca1461030d576100f4565b80634f558e791461020d5780636b20c4541461023d578063731133e914610259578063a22cb46514610275576100f4565b80630e89341c116100d35780630e89341c146101755780631f7fdffa146101a55780632eb2c2d6146101c15780634e1273f4146101dd576100f4565b8062fdd58e146100f957806301ffc9a71461012957806302fe530514610159575b600080fd5b610113600480360381019061010e919061278c565b610329565b6040516101209190612f9d565b60405180910390f35b610143600480360381019061013e91906128fe565b6103f2565b6040516101509190612dc0565b60405180910390f35b610173600480360381019061016e9190612950565b6104d4565b005b61018f600480360381019061018a9190612991565b6104e0565b60405161019c9190612ddb565b60405180910390f35b6101bf60048036038101906101ba91906126a5565b610574565b005b6101db60048036038101906101d691906124d8565b610586565b005b6101f760048036038101906101f29190612892565b610627565b6040516102049190612d67565b60405180910390f35b61022760048036038101906102229190612991565b6107d8565b6040516102349190612dc0565b60405180910390f35b61025760048036038101906102529190612626565b6107ec565b005b610273600480360381019061026e9190612817565b6107fc565b005b61028f600480360381019061028a9190612750565b61080e565b005b6102ab60048036038101906102a69190612991565b61098f565b6040516102b89190612f9d565b60405180910390f35b6102db60048036038101906102d6919061249c565b6109ac565b6040516102e89190612dc0565b60405180910390f35b61030b60048036038101906103069190612597565b610a40565b005b610327600480360381019061032291906127c8565b610ae1565b005b60008073ffffffffffffffffffffffffffffffffffffffff168373ffffffffffffffffffffffffffffffffffffffff16141561039a576040517f08c379a000000000000000000000000000000000000000000000000000000000815260040161039190612e3d565b60405180910390fd5b60008083815260200190815260200160002060008473ffffffffffffffffffffffffffffffffffffffff1673ffffffffffffffffffffffffffffffffffffffff16815260200190815260200160002054905092915050565b60007fd9b67a26000000000000000000000000000000000000000000000000000000007bffffffffffffffffffffffffffffffffffffffffffffffffffffffff1916827bffffffffffffffffffffffffffffffffffffffffffffffffffffffff191614806104bd57507f0e89341c000000000000000000000000000000000000000000000000000000007bffffffffffffffffffffffffffffffffffffffffffffffffffffffff1916827bffffffffffffffffffffffffffffffffffffffffffffffffffffffff1916145b806104cd57506104cc82610af1565b5b9050919050565b6104dd81610b5b565b50565b6060600280546104ef90613271565b80601f016020809104026020016040519081016040528092919081815260200182805461051b90613271565b80156105685780601f1061053d57610100808354040283529160200191610568565b820191906000526020600020905b81548152906001019060200180831161054b57829003601f168201915b50505050509050919050565b61058084848484610b75565b50505050565b61058e610b87565b73ffffffffffffffffffffffffffffffffffffffff168573ffffffffffffffffffffffffffffffffffffffff1614806105d457506105d3856105ce610b87565b6109ac565b5b610613576040517f08c379a000000000000000000000000000000000000000000000000000000000815260040161060a90612ebd565b60405180910390fd5b6106208585858585610b8f565b5050505050565b6060815183511461066d576040517f08c379a000000000000000000000000000000000000000000000000000000000815260040161066490612f3d565b60405180910390fd5b6000835167ffffffffffffffff8111156106b0577f4e487b7100000000000000000000000000000000000000000000000000000000600052604160045260246000fd5b6040519080825280602002602001820160405280156106de5781602001602082028036833780820191505090505b50905060005b84518110156107cd57610777858281518110610729577f4e487b7100000000000000000000000000000000000000000000000000000000600052603260045260246000fd5b602002602001015185838151811061076a577f4e487b7100000000000000000000000000000000000000000000000000000000600052603260045260246000fd5b6020026020010151610329565b8282815181106107b0577f4e487b7100000000000000000000000000000000000000000000000000000000600052603260045260246000fd5b602002602001018181525050806107c6906132d4565b90506106e4565b508091505092915050565b6000806107e48361098f565b119050919050565b6107f7838383610eef565b505050565b61080884848484610eff565b50505050565b8173ffffffffffffffffffffffffffffffffffffffff1661082d610b87565b73ffffffffffffffffffffffffffffffffffffffff161415610884576040517f08c379a000000000000000000000000000000000000000000000000000000000815260040161087b90612f1d565b60405180910390fd5b8060016000610891610b87565b73ffffffffffffffffffffffffffffffffffffffff1673ffffffffffffffffffffffffffffffffffffffff16815260200190815260200160002060008473ffffffffffffffffffffffffffffffffffffffff1673ffffffffffffffffffffffffffffffffffffffff16815260200190815260200160002060006101000a81548160ff0219169083151502179055508173ffffffffffffffffffffffffffffffffffffffff1661093e610b87565b73ffffffffffffffffffffffffffffffffffffffff167f17307eab39ab6107e8899845ad3d59bd9653f200f220920489ca2b5937696c31836040516109839190612dc0565b60405180910390a35050565b600060036000838152602001908152602001600020549050919050565b6000600160008473ffffffffffffffffffffffffffffffffffffffff1673ffffffffffffffffffffffffffffffffffffffff16815260200190815260200160002060008373ffffffffffffffffffffffffffffffffffffffff1673ffffffffffffffffffffffffffffffffffffffff16815260200190815260200160002060009054906101000a900460ff16905092915050565b610a48610b87565b73ffffffffffffffffffffffffffffffffffffffff168573ffffffffffffffffffffffffffffffffffffffff161480610a8e5750610a8d85610a88610b87565b6109ac565b5b610acd576040517f08c379a0000000000000000000000000000000000000000000000000000000008152600401610ac490612e7d565b60405180910390fd5b610ada8585858585610f11565b5050505050565b610aec838383611193565b505050565b60007f01ffc9a7000000000000000000000000000000000000000000000000000000007bffffffffffffffffffffffffffffffffffffffffffffffffffffffff1916827bffffffffffffffffffffffffffffffffffffffffffffffffffffffff1916149050919050565b8060029080519060200190610b71929190612194565b5050565b610b81848484846111a3565b50505050565b600033905090565b8151835114610bd3576040517f08c379a0000000000000000000000000000000000000000000000000000000008152600401610bca90612f5d565b60405180910390fd5b600073ffffffffffffffffffffffffffffffffffffffff168473ffffffffffffffffffffffffffffffffffffffff161415610c43576040517f08c379a0000000000000000000000000000000000000000000000000000000008152600401610c3a90612e9d565b60405180910390fd5b6000610c4d610b87565b9050610c5d81878787878761127d565b60005b8451811015610e5a576000858281518110610ca4577f4e487b7100000000000000000000000000000000000000000000000000000000600052603260045260246000fd5b602002602001015190506000858381518110610ce9577f4e487b7100000000000000000000000000000000000000000000000000000000600052603260045260246000fd5b60200260200101519050600080600084815260200190815260200160002060008b73ffffffffffffffffffffffffffffffffffffffff1673ffffffffffffffffffffffffffffffffffffffff16815260200190815260200160002054905081811015610d8a576040517f08c379a0000000000000000000000000000000000000000000000000000000008152600401610d8190612efd565b60405180910390fd5b81810360008085815260200190815260200160002060008c73ffffffffffffffffffffffffffffffffffffffff1673ffffffffffffffffffffffffffffffffffffffff168152602001908152602001600020819055508160008085815260200190815260200160002060008b73ffffffffffffffffffffffffffffffffffffffff1673ffffffffffffffffffffffffffffffffffffffff1681526020019081526020016000206000828254610e3f9190613131565b9250508190555050505080610e53906132d4565b9050610c60565b508473ffffffffffffffffffffffffffffffffffffffff168673ffffffffffffffffffffffffffffffffffffffff168273ffffffffffffffffffffffffffffffffffffffff167f4a39dc06d4c0dbc64b70af90fd698a233a518aa5d07e595d983b8c0526c8f7fb8787604051610ed1929190612d89565b60405180910390a4610ee7818787878787611285565b505050505050565b610efa83838361146c565b505050565b610f0b84848484611544565b50505050565b600073ffffffffffffffffffffffffffffffffffffffff168473ffffffffffffffffffffffffffffffffffffffff161415610f81576040517f08c379a0000000000000000000000000000000000000000000000000000000008152600401610f7890612e9d565b60405180910390fd5b6000610f8b610b87565b9050610fab818787610f9c88611580565b610fa588611580565b8761127d565b600080600086815260200190815260200160002060008873ffffffffffffffffffffffffffffffffffffffff1673ffffffffffffffffffffffffffffffffffffffff16815260200190815260200160002054905083811015611042576040517f08c379a000000000000000000000000000000000000000000000000000000000815260040161103990612efd565b60405180910390fd5b83810360008087815260200190815260200160002060008973ffffffffffffffffffffffffffffffffffffffff1673ffffffffffffffffffffffffffffffffffffffff168152602001908152602001600020819055508360008087815260200190815260200160002060008873ffffffffffffffffffffffffffffffffffffffff1673ffffffffffffffffffffffffffffffffffffffff16815260200190815260200160002060008282546110f79190613131565b925050819055508573ffffffffffffffffffffffffffffffffffffffff168773ffffffffffffffffffffffffffffffffffffffff168373ffffffffffffffffffffffffffffffffffffffff167fc3d58168c5ae7397731d063d5bbf3d657854427343f4c083240f7aacaa2d0f628888604051611174929190612fb8565b60405180910390a461118a828888888888611646565b50505050505050565b61119e83838361182d565b505050565b6111af84848484611867565b60005b8351811015611276578281815181106111f4577f4e487b7100000000000000000000000000000000000000000000000000000000600052603260045260246000fd5b602002602001015160036000868481518110611239577f4e487b7100000000000000000000000000000000000000000000000000000000600052603260045260246000fd5b60200260200101518152602001908152602001600020600082825461125e9190613131565b925050819055508061126f906132d4565b90506111b2565b5050505050565b505050505050565b6112a48473ffffffffffffffffffffffffffffffffffffffff16611ad1565b15611464578373ffffffffffffffffffffffffffffffffffffffff1663bc197c8187878686866040518663ffffffff1660e01b81526004016112ea959493929190612ca5565b602060405180830381600087803b15801561130457600080fd5b505af192505050801561133557506040513d601f19601f820116820180604052508101906113329190612927565b60015b6113db576113416133aa565b806308c379a0141561139e57506113566137ed565b8061136157506113a0565b806040517f08c379a00000000000000000000000000000000000000000000000000000000081526004016113959190612ddb565b60405180910390fd5b505b6040517f08c379a00000000000000000000000000000000000000000000000000000000081526004016113d290612dfd565b60405180910390fd5b63bc197c8160e01b7bffffffffffffffffffffffffffffffffffffffffffffffffffffffff1916817bffffffffffffffffffffffffffffffffffffffffffffffffffffffff191614611462576040517f08c379a000000000000000000000000000000000000000000000000000000000815260040161145990612e1d565b60405180910390fd5b505b505050505050565b611477838383611ae4565b60005b825181101561153e578181815181106114bc577f4e487b7100000000000000000000000000000000000000000000000000000000600052603260045260246000fd5b602002602001015160036000858481518110611501577f4e487b7100000000000000000000000000000000000000000000000000000000600052603260045260246000fd5b6020026020010151815260200190815260200160002060008282546115269190613187565b9250508190555080611537906132d4565b905061147a565b50505050565b61155084848484611de1565b816003600085815260200190815260200160002060008282546115739190613131565b9250508190555050505050565b60606000600167ffffffffffffffff8111156115c5577f4e487b7100000000000000000000000000000000000000000000000000000000600052604160045260246000fd5b6040519080825280602002602001820160405280156115f35781602001602082028036833780820191505090505b5090508281600081518110611631577f4e487b7100000000000000000000000000000000000000000000000000000000600052603260045260246000fd5b60200260200101818152505080915050919050565b6116658473ffffffffffffffffffffffffffffffffffffffff16611ad1565b15611825578373ffffffffffffffffffffffffffffffffffffffff1663f23a6e6187878686866040518663ffffffff1660e01b81526004016116ab959493929190612d0d565b602060405180830381600087803b1580156116c557600080fd5b505af19250505080156116f657506040513d601f19601f820116820180604052508101906116f39190612927565b60015b61179c576117026133aa565b806308c379a0141561175f57506117176137ed565b806117225750611761565b806040517f08c379a00000000000000000000000000000000000000000000000000000000081526004016117569190612ddb565b60405180910390fd5b505b6040517f08c379a000000000000000000000000000000000000000000000000000000000815260040161179390612dfd565b60405180910390fd5b63f23a6e6160e01b7bffffffffffffffffffffffffffffffffffffffffffffffffffffffff1916817bffffffffffffffffffffffffffffffffffffffffffffffffffffffff191614611823576040517f08c379a000000000000000000000000000000000000000000000000000000000815260040161181a90612e1d565b60405180910390fd5b505b505050505050565b611838838383611f77565b8060036000848152602001908152602001600020600082825461185b9190613187565b92505081905550505050565b600073ffffffffffffffffffffffffffffffffffffffff168473ffffffffffffffffffffffffffffffffffffffff1614156118d7576040517f08c379a00000000000000000000000000000000000000000000000000000000081526004016118ce90612f7d565b60405180910390fd5b815183511461191b576040517f08c379a000000000000000000000000000000000000000000000000000000000815260040161191290612f5d565b60405180910390fd5b6000611925610b87565b90506119368160008787878761127d565b60005b8451811015611a3b5783818151811061197b577f4e487b7100000000000000000000000000000000000000000000000000000000600052603260045260246000fd5b60200260200101516000808784815181106119bf577f4e487b7100000000000000000000000000000000000000000000000000000000600052603260045260246000fd5b6020026020010151815260200190815260200160002060008873ffffffffffffffffffffffffffffffffffffffff1673ffffffffffffffffffffffffffffffffffffffff1681526020019081526020016000206000828254611a219190613131565b925050819055508080611a33906132d4565b915050611939565b508473ffffffffffffffffffffffffffffffffffffffff16600073ffffffffffffffffffffffffffffffffffffffff168273ffffffffffffffffffffffffffffffffffffffff167f4a39dc06d4c0dbc64b70af90fd698a233a518aa5d07e595d983b8c0526c8f7fb8787604051611ab3929190612d89565b60405180910390a4611aca81600087878787611285565b5050505050565b600080823b905060008111915050919050565b600073ffffffffffffffffffffffffffffffffffffffff168373ffffffffffffffffffffffffffffffffffffffff161415611b54576040517f08c379a0000000000000000000000000000000000000000000000000000000008152600401611b4b90612edd565b60405180910390fd5b8051825114611b98576040517f08c379a0000000000000000000000000000000000000000000000000000000008152600401611b8f90612f5d565b60405180910390fd5b6000611ba2610b87565b9050611bc28185600086866040518060200160405280600081525061127d565b60005b8351811015611d5b576000848281518110611c09577f4e487b7100000000000000000000000000000000000000000000000000000000600052603260045260246000fd5b602002602001015190506000848381518110611c4e577f4e487b7100000000000000000000000000000000000000000000000000000000600052603260045260246000fd5b60200260200101519050600080600084815260200190815260200160002060008973ffffffffffffffffffffffffffffffffffffffff1673ffffffffffffffffffffffffffffffffffffffff16815260200190815260200160002054905081811015611cef576040517f08c379a0000000000000000000000000000000000000000000000000000000008152600401611ce690612e5d565b60405180910390fd5b81810360008085815260200190815260200160002060008a73ffffffffffffffffffffffffffffffffffffffff1673ffffffffffffffffffffffffffffffffffffffff168152602001908152602001600020819055505050508080611d53906132d4565b915050611bc5565b50600073ffffffffffffffffffffffffffffffffffffffff168473ffffffffffffffffffffffffffffffffffffffff168273ffffffffffffffffffffffffffffffffffffffff167f4a39dc06d4c0dbc64b70af90fd698a233a518aa5d07e595d983b8c0526c8f7fb8686604051611dd3929190612d89565b60405180910390a450505050565b600073ffffffffffffffffffffffffffffffffffffffff168473ffffffffffffffffffffffffffffffffffffffff161415611e51576040517f08c379a0000000000000000000000000000000000000000000000000000000008152600401611e4890612f7d565b60405180910390fd5b6000611e5b610b87565b9050611e7c81600087611e6d88611580565b611e7688611580565b8761127d565b8260008086815260200190815260200160002060008773ffffffffffffffffffffffffffffffffffffffff1673ffffffffffffffffffffffffffffffffffffffff1681526020019081526020016000206000828254611edb9190613131565b925050819055508473ffffffffffffffffffffffffffffffffffffffff16600073ffffffffffffffffffffffffffffffffffffffff168273ffffffffffffffffffffffffffffffffffffffff167fc3d58168c5ae7397731d063d5bbf3d657854427343f4c083240f7aacaa2d0f628787604051611f59929190612fb8565b60405180910390a4611f7081600087878787611646565b5050505050565b600073ffffffffffffffffffffffffffffffffffffffff168373ffffffffffffffffffffffffffffffffffffffff161415611fe7576040517f08c379a0000000000000000000000000000000000000000000000000000000008152600401611fde90612edd565b60405180910390fd5b6000611ff1610b87565b90506120218185600061200387611580565b61200c87611580565b6040518060200160405280600081525061127d565b600080600085815260200190815260200160002060008673ffffffffffffffffffffffffffffffffffffffff1673ffffffffffffffffffffffffffffffffffffffff168152602001908152602001600020549050828110156120b8576040517f08c379a00000000000000000000000000000000000000000000000000000000081526004016120af90612e5d565b60405180910390fd5b82810360008086815260200190815260200160002060008773ffffffffffffffffffffffffffffffffffffffff1673ffffffffffffffffffffffffffffffffffffffff16815260200190815260200160002081905550600073ffffffffffffffffffffffffffffffffffffffff168573ffffffffffffffffffffffffffffffffffffffff168373ffffffffffffffffffffffffffffffffffffffff167fc3d58168c5ae7397731d063d5bbf3d657854427343f4c083240f7aacaa2d0f628787604051612185929190612fb8565b60405180910390a45050505050565b8280546121a090613271565b90600052602060002090601f0160209004810192826121c25760008555612209565b82601f106121db57805160ff1916838001178555612209565b82800160010185558215612209579182015b828111156122085782518255916020019190600101906121ed565b5b509050612216919061221a565b5090565b5b8082111561223357600081600090555060010161221b565b5090565b600061224a61224584613006565b612fe1565b9050808382526020820190508285602086028201111561226957600080fd5b60005b85811015612299578161227f888261238b565b84526020840193506020830192505060018101905061226c565b5050509392505050565b60006122b66122b184613032565b612fe1565b905080838252602082019050828560208602820111156122d557600080fd5b60005b8581101561230557816122eb8882612487565b8452602084019350602083019250506001810190506122d8565b5050509392505050565b600061232261231d8461305e565b612fe1565b90508281526020810184848401111561233a57600080fd5b61234584828561322f565b509392505050565b600061236061235b8461308f565b612fe1565b90508281526020810184848401111561237857600080fd5b61238384828561322f565b509392505050565b60008135905061239a81613883565b92915050565b600082601f8301126123b157600080fd5b81356123c1848260208601612237565b91505092915050565b600082601f8301126123db57600080fd5b81356123eb8482602086016122a3565b91505092915050565b6000813590506124038161389a565b92915050565b600081359050612418816138b1565b92915050565b60008151905061242d816138b1565b92915050565b600082601f83011261244457600080fd5b813561245484826020860161230f565b91505092915050565b600082601f83011261246e57600080fd5b813561247e84826020860161234d565b91505092915050565b600081359050612496816138c8565b92915050565b600080604083850312156124af57600080fd5b60006124bd8582860161238b565b92505060206124ce8582860161238b565b9150509250929050565b600080600080600060a086880312156124f057600080fd5b60006124fe8882890161238b565b955050602061250f8882890161238b565b945050604086013567ffffffffffffffff81111561252c57600080fd5b612538888289016123ca565b935050606086013567ffffffffffffffff81111561255557600080fd5b612561888289016123ca565b925050608086013567ffffffffffffffff81111561257e57600080fd5b61258a88828901612433565b9150509295509295909350565b600080600080600060a086880312156125af57600080fd5b60006125bd8882890161238b565b95505060206125ce8882890161238b565b94505060406125df88828901612487565b93505060606125f088828901612487565b925050608086013567ffffffffffffffff81111561260d57600080fd5b61261988828901612433565b9150509295509295909350565b60008060006060848603121561263b57600080fd5b60006126498682870161238b565b935050602084013567ffffffffffffffff81111561266657600080fd5b612672868287016123ca565b925050604084013567ffffffffffffffff81111561268f57600080fd5b61269b868287016123ca565b9150509250925092565b600080600080608085870312156126bb57600080fd5b60006126c98782880161238b565b945050602085013567ffffffffffffffff8111156126e657600080fd5b6126f2878288016123ca565b935050604085013567ffffffffffffffff81111561270f57600080fd5b61271b878288016123ca565b925050606085013567ffffffffffffffff81111561273857600080fd5b61274487828801612433565b91505092959194509250565b6000806040838503121561276357600080fd5b60006127718582860161238b565b9250506020612782858286016123f4565b9150509250929050565b6000806040838503121561279f57600080fd5b60006127ad8582860161238b565b92505060206127be85828601612487565b9150509250929050565b6000806000606084860312156127dd57600080fd5b60006127eb8682870161238b565b93505060206127fc86828701612487565b925050604061280d86828701612487565b9150509250925092565b6000806000806080858703121561282d57600080fd5b600061283b8782880161238b565b945050602061284c87828801612487565b935050604061285d87828801612487565b925050606085013567ffffffffffffffff81111561287a57600080fd5b61288687828801612433565b91505092959194509250565b600080604083850312156128a557600080fd5b600083013567ffffffffffffffff8111156128bf57600080fd5b6128cb858286016123a0565b925050602083013567ffffffffffffffff8111156128e857600080fd5b6128f4858286016123ca565b9150509250929050565b60006020828403121561291057600080fd5b600061291e84828501612409565b91505092915050565b60006020828403121561293957600080fd5b60006129478482850161241e565b91505092915050565b60006020828403121561296257600080fd5b600082013567ffffffffffffffff81111561297c57600080fd5b6129888482850161245d565b91505092915050565b6000602082840312156129a357600080fd5b60006129b184828501612487565b91505092915050565b60006129c68383612c87565b60208301905092915050565b6129db816131bb565b82525050565b60006129ec826130d0565b6129f681856130fe565b9350612a01836130c0565b8060005b83811015612a32578151612a1988826129ba565b9750612a24836130f1565b925050600181019050612a05565b5085935050505092915050565b612a48816131cd565b82525050565b6000612a59826130db565b612a63818561310f565b9350612a7381856020860161323e565b612a7c816133cc565b840191505092915050565b6000612a92826130e6565b612a9c8185613120565b9350612aac81856020860161323e565b612ab5816133cc565b840191505092915050565b6000612acd603483613120565b9150612ad8826133ea565b604082019050919050565b6000612af0602883613120565b9150612afb82613439565b604082019050919050565b6000612b13602b83613120565b9150612b1e82613488565b604082019050919050565b6000612b36602483613120565b9150612b41826134d7565b604082019050919050565b6000612b59602983613120565b9150612b6482613526565b604082019050919050565b6000612b7c602583613120565b9150612b8782613575565b604082019050919050565b6000612b9f603283613120565b9150612baa826135c4565b604082019050919050565b6000612bc2602383613120565b9150612bcd82613613565b604082019050919050565b6000612be5602a83613120565b9150612bf082613662565b604082019050919050565b6000612c08602983613120565b9150612c13826136b1565b604082019050919050565b6000612c2b602983613120565b9150612c3682613700565b604082019050919050565b6000612c4e602883613120565b9150612c598261374f565b604082019050919050565b6000612c71602183613120565b9150612c7c8261379e565b604082019050919050565b612c9081613225565b82525050565b612c9f81613225565b82525050565b600060a082019050612cba60008301886129d2565b612cc760208301876129d2565b8181036040830152612cd981866129e1565b90508181036060830152612ced81856129e1565b90508181036080830152612d018184612a4e565b90509695505050505050565b600060a082019050612d2260008301886129d2565b612d2f60208301876129d2565b612d3c6040830186612c96565b612d496060830185612c96565b8181036080830152612d5b8184612a4e565b90509695505050505050565b60006020820190508181036000830152612d8181846129e1565b905092915050565b60006040820190508181036000830152612da381856129e1565b90508181036020830152612db781846129e1565b90509392505050565b6000602082019050612dd56000830184612a3f565b92915050565b60006020820190508181036000830152612df58184612a87565b905092915050565b60006020820190508181036000830152612e1681612ac0565b9050919050565b60006020820190508181036000830152612e3681612ae3565b9050919050565b60006020820190508181036000830152612e5681612b06565b9050919050565b60006020820190508181036000830152612e7681612b29565b9050919050565b60006020820190508181036000830152612e9681612b4c565b9050919050565b60006020820190508181036000830152612eb681612b6f565b9050919050565b60006020820190508181036000830152612ed681612b92565b9050919050565b60006020820190508181036000830152612ef681612bb5565b9050919050565b60006020820190508181036000830152612f1681612bd8565b9050919050565b60006020820190508181036000830152612f3681612bfb565b9050919050565b60006020820190508181036000830152612f5681612c1e565b9050919050565b60006020820190508181036000830152612f7681612c41565b9050919050565b60006020820190508181036000830152612f9681612c64565b9050919050565b6000602082019050612fb26000830184612c96565b92915050565b6000604082019050612fcd6000830185612c96565b612fda6020830184612c96565b9392505050565b6000612feb612ffc565b9050612ff782826132a3565b919050565b6000604051905090565b600067ffffffffffffffff8211156130215761302061337b565b5b602082029050602081019050919050565b600067ffffffffffffffff82111561304d5761304c61337b565b5b602082029050602081019050919050565b600067ffffffffffffffff8211156130795761307861337b565b5b613082826133cc565b9050602081019050919050565b600067ffffffffffffffff8211156130aa576130a961337b565b5b6130b3826133cc565b9050602081019050919050565b6000819050602082019050919050565b600081519050919050565b600081519050919050565b600081519050919050565b6000602082019050919050565b600082825260208201905092915050565b600082825260208201905092915050565b600082825260208201905092915050565b600061313c82613225565b915061314783613225565b9250827fffffffffffffffffffffffffffffffffffffffffffffffffffffffffffffffff0382111561317c5761317b61331d565b5b828201905092915050565b600061319282613225565b915061319d83613225565b9250828210156131b0576131af61331d565b5b828203905092915050565b60006131c682613205565b9050919050565b60008115159050919050565b60007fffffffff0000000000000000000000000000000000000000000000000000000082169050919050565b600073ffffffffffffffffffffffffffffffffffffffff82169050919050565b6000819050919050565b82818337600083830152505050565b60005b8381101561325c578082015181840152602081019050613241565b8381111561326b576000848401525b50505050565b6000600282049050600182168061328957607f821691505b6020821081141561329d5761329c61334c565b5b50919050565b6132ac826133cc565b810181811067ffffffffffffffff821117156132cb576132ca61337b565b5b80604052505050565b60006132df82613225565b91507fffffffffffffffffffffffffffffffffffffffffffffffffffffffffffffffff8214156133125761331161331d565b5b600182019050919050565b7f4e487b7100000000000000000000000000000000000000000000000000000000600052601160045260246000fd5b7f4e487b7100000000000000000000000000000000000000000000000000000000600052602260045260246000fd5b7f4e487b7100000000000000000000000000000000000000000000000000000000600052604160045260246000fd5b600060033d11156133c95760046000803e6133c66000516133dd565b90505b90565b6000601f19601f8301169050919050565b60008160e01c9050919050565b7f455243313135353a207472616e7366657220746f206e6f6e204552433131353560008201527f526563656976657220696d706c656d656e746572000000000000000000000000602082015250565b7f455243313135353a204552433131353552656365697665722072656a6563746560008201527f6420746f6b656e73000000000000000000000000000000000000000000000000602082015250565b7f455243313135353a2062616c616e636520717565727920666f7220746865207a60008201527f65726f2061646472657373000000000000000000000000000000000000000000602082015250565b7f455243313135353a206275726e20616d6f756e7420657863656564732062616c60008201527f616e636500000000000000000000000000000000000000000000000000000000602082015250565b7f455243313135353a2063616c6c6572206973206e6f74206f776e6572206e6f7260008201527f20617070726f7665640000000000000000000000000000000000000000000000602082015250565b7f455243313135353a207472616e7366657220746f20746865207a65726f20616460008201527f6472657373000000000000000000000000000000000000000000000000000000602082015250565b7f455243313135353a207472616e736665722063616c6c6572206973206e6f742060008201527f6f776e6572206e6f7220617070726f7665640000000000000000000000000000602082015250565b7f455243313135353a206275726e2066726f6d20746865207a65726f206164647260008201527f6573730000000000000000000000000000000000000000000000000000000000602082015250565b7f455243313135353a20696e73756666696369656e742062616c616e636520666f60008201527f72207472616e7366657200000000000000000000000000000000000000000000602082015250565b7f455243313135353a2073657474696e6720617070726f76616c2073746174757360008201527f20666f722073656c660000000000000000000000000000000000000000000000602082015250565b7f455243313135353a206163636f756e747320616e6420696473206c656e67746860008201527f206d69736d617463680000000000000000000000000000000000000000000000602082015250565b7f455243313135353a2069647320616e6420616d6f756e7473206c656e6774682060008201527f6d69736d61746368000000000000000000000000000000000000000000000000602082015250565b7f455243313135353a206d696e7420746f20746865207a65726f2061646472657360008201527f7300000000000000000000000000000000000000000000000000000000000000602082015250565b600060443d10156137fd57613880565b613805612ffc565b60043d036004823e80513d602482011167ffffffffffffffff8211171561382d575050613880565b808201805167ffffffffffffffff81111561384b5750505050613880565b80602083010160043d038501811115613868575050505050613880565b613877826020018501866132a3565b82955050505050505b90565b61388c816131bb565b811461389757600080fd5b50565b6138a3816131cd565b81146138ae57600080fd5b50565b6138ba816131d9565b81146138c557600080fd5b50565b6138d181613225565b81146138dc57600080fd5b5056fea2646970667358221220d1406b0e45640ea1bbbdc3598e1ed01637b6a588c2bb0f6cf8965b23b2fc6fd064736f6c63430008020033",
  "immutableReferences": {},
  "source": "// SPDX-License-Identifier: MIT\r\n\r\npragma solidity ^0.8.0;\r\n\r\nimport \"./ERC1155Mock.sol\";\r\nimport \"../token/ERC1155/extensions/ERC1155Supply.sol\";\r\n\r\ncontract ERC1155SupplyMock is ERC1155Mock, ERC1155Supply {\r\n    constructor(string memory uri) ERC1155Mock(uri) {}\r\n\r\n    function _mint(\r\n        address account,\r\n        uint256 id,\r\n        uint256 amount,\r\n        bytes memory data\r\n    ) internal virtual override(ERC1155, ERC1155Supply) {\r\n        super._mint(account, id, amount, data);\r\n    }\r\n\r\n    function _mintBatch(\r\n        address to,\r\n        uint256[] memory ids,\r\n        uint256[] memory amounts,\r\n        bytes memory data\r\n    ) internal virtual override(ERC1155, ERC1155Supply) {\r\n        super._mintBatch(to, ids, amounts, data);\r\n    }\r\n\r\n    function _burn(\r\n        address account,\r\n        uint256 id,\r\n        uint256 amount\r\n    ) internal virtual override(ERC1155, ERC1155Supply) {\r\n        super._burn(account, id, amount);\r\n    }\r\n\r\n    function _burnBatch(\r\n        address account,\r\n        uint256[] memory ids,\r\n        uint256[] memory amounts\r\n    ) internal virtual override(ERC1155, ERC1155Supply) {\r\n        super._burnBatch(account, ids, amounts);\r\n    }\r\n}\r\n",
  "sourcePath": "C:\\Users\\Administrator\\Downloads\\lofi_marketplace_frontend\\contracts\\openzeppelin-solidity\\contracts\\mocks\\ERC1155SupplyMock.sol",
  "compiler": {
    "name": "solc",
    "version": "0.8.2+commit.661d1103.Emscripten.clang"
  },
  "schemaVersion": "3.4.5",
  "updatedAt": "2022-02-21T16:24:46.226Z",
  "devdoc": {
    "kind": "dev",
    "methods": {
      "balanceOf(address,uint256)": {
        "details": "See {IERC1155-balanceOf}. Requirements: - `account` cannot be the zero address."
      },
      "balanceOfBatch(address[],uint256[])": {
        "details": "See {IERC1155-balanceOfBatch}. Requirements: - `accounts` and `ids` must have the same length."
      },
      "exists(uint256)": {
        "details": "Indicates weither any token exist with a given id, or not."
      },
      "isApprovedForAll(address,address)": {
        "details": "See {IERC1155-isApprovedForAll}."
      },
      "safeBatchTransferFrom(address,address,uint256[],uint256[],bytes)": {
        "details": "See {IERC1155-safeBatchTransferFrom}."
      },
      "safeTransferFrom(address,address,uint256,uint256,bytes)": {
        "details": "See {IERC1155-safeTransferFrom}."
      },
      "setApprovalForAll(address,bool)": {
        "details": "See {IERC1155-setApprovalForAll}."
      },
      "supportsInterface(bytes4)": {
        "details": "See {IERC165-supportsInterface}."
      },
      "totalSupply(uint256)": {
        "details": "Total amount of tokens in with a given id."
      },
      "uri(uint256)": {
        "details": "See {IERC1155MetadataURI-uri}. This implementation returns the same URI for *all* token types. It relies on the token type ID substitution mechanism https://eips.ethereum.org/EIPS/eip-1155#metadata[defined in the EIP]. Clients calling this function must replace the `\\{id\\}` substring with the actual token type ID."
      }
    },
    "version": 1
  },
  "userdoc": {
    "kind": "user",
    "methods": {},
    "version": 1
  }
}