{
  "contractName": "ERC20NoReturnMock",
  "abi": [
    {
      "inputs": [
        {
          "internalType": "address",
          "name": "",
          "type": "address"
        },
        {
          "internalType": "uint256",
          "name": "",
          "type": "uint256"
        }
      ],
      "name": "transfer",
      "outputs": [],
      "stateMutability": "nonpayable",
      "type": "function"
    },
    {
      "inputs": [
        {
          "internalType": "address",
          "name": "",
          "type": "address"
        },
        {
          "internalType": "address",
          "name": "",
          "type": "address"
        },
        {
          "internalType": "uint256",
          "name": "",
          "type": "uint256"
        }
      ],
      "name": "transferFrom",
      "outputs": [],
      "stateMutability": "nonpayable",
      "type": "function"
    },
    {
      "inputs": [
        {
          "internalType": "address",
          "name": "",
          "type": "address"
        },
        {
          "internalType": "uint256",
          "name": "",
          "type": "uint256"
        }
      ],
      "name": "approve",
      "outputs": [],
      "stateMutability": "nonpayable",
      "type": "function"
    },
    {
      "inputs": [
        {
          "internalType": "uint256",
          "name": "allowance_",
          "type": "uint256"
        }
      ],
      "name": "setAllowance",
      "outputs": [],
      "stateMutability": "nonpayable",
      "type": "function"
    },
    {
      "inputs": [
        {
          "internalType": "address",
          "name": "owner",
          "type": "address"
        },
        {
          "internalType": "address",
          "name": "",
          "type": "address"
        }
      ],
      "name": "allowance",
      "outputs": [
        {
          "internalType": "uint256",
          "name": "",
          "type": "uint256"
        }
      ],
      "stateMutability": "view",
      "type": "function"
    }
  ],
  "bytecode": "0x608060405234801561001057600080fd5b506103a3806100206000396000f3fe608060405234801561001057600080fd5b50600436106100575760003560e01c8063095ea7b31461005c57806323b872dd146100785780633ba93f2614610094578063a9059cbb146100b0578063dd62ed3e146100cc575b600080fd5b61007660048036038101906100719190610274565b6100fc565b005b610092600480360381019061008d9190610225565b610108565b005b6100ae60048036038101906100a991906102b0565b610115565b005b6100ca60048036038101906100c59190610274565b610162565b005b6100e660048036038101906100e191906101e9565b61016e565b6040516100f391906102e8565b60405180910390f35b60006001819055505050565b6000600181905550505050565b806000806101216101b7565b73ffffffffffffffffffffffffffffffffffffffff1673ffffffffffffffffffffffffffffffffffffffff1681526020019081526020016000208190555050565b60006001819055505050565b60008060008473ffffffffffffffffffffffffffffffffffffffff1673ffffffffffffffffffffffffffffffffffffffff16815260200190815260200160002054905092915050565b600033905090565b6000813590506101ce8161033f565b92915050565b6000813590506101e381610356565b92915050565b600080604083850312156101fc57600080fd5b600061020a858286016101bf565b925050602061021b858286016101bf565b9150509250929050565b60008060006060848603121561023a57600080fd5b6000610248868287016101bf565b9350506020610259868287016101bf565b925050604061026a868287016101d4565b9150509250925092565b6000806040838503121561028757600080fd5b6000610295858286016101bf565b92505060206102a6858286016101d4565b9150509250929050565b6000602082840312156102c257600080fd5b60006102d0848285016101d4565b91505092915050565b6102e281610335565b82525050565b60006020820190506102fd60008301846102d9565b92915050565b600061030e82610315565b9050919050565b600073ffffffffffffffffffffffffffffffffffffffff82169050919050565b6000819050919050565b61034881610303565b811461035357600080fd5b50565b61035f81610335565b811461036a57600080fd5b5056fea2646970667358221220e44fe68ad7bca13f4569b50e369f0a34d49f5dbae606d0eab6516c7874c7872764736f6c63430008020033",
  "immutableReferences": {},
  "source": "// SPDX-License-Identifier: MIT\r\n\r\npragma solidity ^0.8.0;\r\n\r\nimport \"../utils/Context.sol\";\r\nimport \"../token/ERC20/IERC20.sol\";\r\nimport \"../token/ERC20/utils/SafeERC20.sol\";\r\n\r\ncontract ERC20ReturnFalseMock is Context {\r\n    uint256 private _allowance;\r\n\r\n    // IERC20's functions are not pure, but these mock implementations are: to prevent Solidity from issuing warnings,\r\n    // we write to a dummy state variable.\r\n    uint256 private _dummy;\r\n\r\n    function transfer(address, uint256) public returns (bool) {\r\n        _dummy = 0;\r\n        return false;\r\n    }\r\n\r\n    function transferFrom(\r\n        address,\r\n        address,\r\n        uint256\r\n    ) public returns (bool) {\r\n        _dummy = 0;\r\n        return false;\r\n    }\r\n\r\n    function approve(address, uint256) public returns (bool) {\r\n        _dummy = 0;\r\n        return false;\r\n    }\r\n\r\n    function allowance(address, address) public view returns (uint256) {\r\n        require(_dummy == 0); // Duummy read from a state variable so that the function is view\r\n        return 0;\r\n    }\r\n}\r\n\r\ncontract ERC20ReturnTrueMock is Context {\r\n    mapping(address => uint256) private _allowances;\r\n\r\n    // IERC20's functions are not pure, but these mock implementations are: to prevent Solidity from issuing warnings,\r\n    // we write to a dummy state variable.\r\n    uint256 private _dummy;\r\n\r\n    function transfer(address, uint256) public returns (bool) {\r\n        _dummy = 0;\r\n        return true;\r\n    }\r\n\r\n    function transferFrom(\r\n        address,\r\n        address,\r\n        uint256\r\n    ) public returns (bool) {\r\n        _dummy = 0;\r\n        return true;\r\n    }\r\n\r\n    function approve(address, uint256) public returns (bool) {\r\n        _dummy = 0;\r\n        return true;\r\n    }\r\n\r\n    function setAllowance(uint256 allowance_) public {\r\n        _allowances[_msgSender()] = allowance_;\r\n    }\r\n\r\n    function allowance(address owner, address) public view returns (uint256) {\r\n        return _allowances[owner];\r\n    }\r\n}\r\n\r\ncontract ERC20NoReturnMock is Context {\r\n    mapping(address => uint256) private _allowances;\r\n\r\n    // IERC20's functions are not pure, but these mock implementations are: to prevent Solidity from issuing warnings,\r\n    // we write to a dummy state variable.\r\n    uint256 private _dummy;\r\n\r\n    function transfer(address, uint256) public {\r\n        _dummy = 0;\r\n    }\r\n\r\n    function transferFrom(\r\n        address,\r\n        address,\r\n        uint256\r\n    ) public {\r\n        _dummy = 0;\r\n    }\r\n\r\n    function approve(address, uint256) public {\r\n        _dummy = 0;\r\n    }\r\n\r\n    function setAllowance(uint256 allowance_) public {\r\n        _allowances[_msgSender()] = allowance_;\r\n    }\r\n\r\n    function allowance(address owner, address) public view returns (uint256) {\r\n        return _allowances[owner];\r\n    }\r\n}\r\n\r\ncontract SafeERC20Wrapper is Context {\r\n    using SafeERC20 for IERC20;\r\n\r\n    IERC20 private _token;\r\n\r\n    constructor(IERC20 token) {\r\n        _token = token;\r\n    }\r\n\r\n    function transfer() public {\r\n        _token.safeTransfer(address(0), 0);\r\n    }\r\n\r\n    function transferFrom() public {\r\n        _token.safeTransferFrom(address(0), address(0), 0);\r\n    }\r\n\r\n    function approve(uint256 amount) public {\r\n        _token.safeApprove(address(0), amount);\r\n    }\r\n\r\n    function increaseAllowance(uint256 amount) public {\r\n        _token.safeIncreaseAllowance(address(0), amount);\r\n    }\r\n\r\n    function decreaseAllowance(uint256 amount) public {\r\n        _token.safeDecreaseAllowance(address(0), amount);\r\n    }\r\n\r\n    function setAllowance(uint256 allowance_) public {\r\n        ERC20ReturnTrueMock(address(_token)).setAllowance(allowance_);\r\n    }\r\n\r\n    function allowance() public view returns (uint256) {\r\n        return _token.allowance(address(0), address(0));\r\n    }\r\n}\r\n",
  "sourcePath": "C:\\Users\\Administrator\\Downloads\\lofi_marketplace_frontend\\contracts\\openzeppelin-solidity\\contracts\\mocks\\SafeERC20Helper.sol",
  "compiler": {
    "name": "solc",
    "version": "0.8.2+commit.661d1103.Emscripten.clang"
  },
  "schemaVersion": "3.4.5",
  "updatedAt": "2022-02-21T16:24:46.858Z",
  "devdoc": {
    "kind": "dev",
    "methods": {},
    "version": 1
  },
  "userdoc": {
    "kind": "user",
    "methods": {},
    "version": 1
  }
}