{
  "contractName": "PausableMock",
  "abi": [
    {
      "inputs": [],
      "stateMutability": "nonpayable",
      "type": "constructor"
    },
    {
      "anonymous": false,
      "inputs": [
        {
          "indexed": false,
          "internalType": "address",
          "name": "account",
          "type": "address"
        }
      ],
      "name": "Paused",
      "type": "event"
    },
    {
      "anonymous": false,
      "inputs": [
        {
          "indexed": false,
          "internalType": "address",
          "name": "account",
          "type": "address"
        }
      ],
      "name": "Unpaused",
      "type": "event"
    },
    {
      "inputs": [],
      "name": "count",
      "outputs": [
        {
          "internalType": "uint256",
          "name": "",
          "type": "uint256"
        }
      ],
      "stateMutability": "view",
      "type": "function"
    },
    {
      "inputs": [],
      "name": "drasticMeasureTaken",
      "outputs": [
        {
          "internalType": "bool",
          "name": "",
          "type": "bool"
        }
      ],
      "stateMutability": "view",
      "type": "function"
    },
    {
      "inputs": [],
      "name": "paused",
      "outputs": [
        {
          "internalType": "bool",
          "name": "",
          "type": "bool"
        }
      ],
      "stateMutability": "view",
      "type": "function"
    },
    {
      "inputs": [],
      "name": "normalProcess",
      "outputs": [],
      "stateMutability": "nonpayable",
      "type": "function"
    },
    {
      "inputs": [],
      "name": "drasticMeasure",
      "outputs": [],
      "stateMutability": "nonpayable",
      "type": "function"
    },
    {
      "inputs": [],
      "name": "pause",
      "outputs": [],
      "stateMutability": "nonpayable",
      "type": "function"
    },
    {
      "inputs": [],
      "name": "unpause",
      "outputs": [],
      "stateMutability": "nonpayable",
      "type": "function"
    }
  ],
  "bytecode": "0x608060405234801561001057600080fd5b5060008060006101000a81548160ff02191690831515021790555060008060016101000a81548160ff02191690831515021790555060006001819055506105b58061005c6000396000f3fe608060405234801561001057600080fd5b506004361061007d5760003560e01c806376657b8e1161005b57806376657b8e146100c85780638456cb59146100e65780639958f045146100f0578063e7651d7a146100fa5761007d565b806306661abd146100825780633f4ba83a146100a05780635c975abb146100aa575b600080fd5b61008a610104565b6040516100979190610441565b60405180910390f35b6100a861010a565b005b6100b2610114565b6040516100bf91906103e6565b60405180910390f35b6100d061012a565b6040516100dd91906103e6565b60405180910390f35b6100ee61013d565b005b6100f8610147565b005b6101026101ab565b005b60015481565b61011261020d565b565b60008060009054906101000a900460ff16905090565b600060019054906101000a900460ff1681565b6101456102ae565b565b61014f610114565b61018e576040517f08c379a000000000000000000000000000000000000000000000000000000000815260040161018590610401565b60405180910390fd5b6001600060016101000a81548160ff021916908315150217905550565b6101b3610114565b156101f3576040517f08c379a00000000000000000000000000000000000000000000000000000000081526004016101ea90610421565b60405180910390fd5b60016000815480929190610206906104b5565b9190505550565b610215610114565b610254576040517f08c379a000000000000000000000000000000000000000000000000000000000815260040161024b90610401565b60405180910390fd5b60008060006101000a81548160ff0219169083151502179055507f5db9ee0a495bf2e6ff9c91a7834c1ba4fdd244a5e8aa4e537bd38aeae4b073aa610297610350565b6040516102a491906103cb565b60405180910390a1565b6102b6610114565b156102f6576040517f08c379a00000000000000000000000000000000000000000000000000000000081526004016102ed90610421565b60405180910390fd5b60016000806101000a81548160ff0219169083151502179055507f62e78cea01bee320cd4e420270b5ea74000d11b0c9f74754ebdbfc544b05a258610339610350565b60405161034691906103cb565b60405180910390a1565b600033905090565b6103618161046d565b82525050565b6103708161047f565b82525050565b600061038360148361045c565b915061038e8261052d565b602082019050919050565b60006103a660108361045c565b91506103b182610556565b602082019050919050565b6103c5816104ab565b82525050565b60006020820190506103e06000830184610358565b92915050565b60006020820190506103fb6000830184610367565b92915050565b6000602082019050818103600083015261041a81610376565b9050919050565b6000602082019050818103600083015261043a81610399565b9050919050565b600060208201905061045660008301846103bc565b92915050565b600082825260208201905092915050565b60006104788261048b565b9050919050565b60008115159050919050565b600073ffffffffffffffffffffffffffffffffffffffff82169050919050565b6000819050919050565b60006104c0826104ab565b91507fffffffffffffffffffffffffffffffffffffffffffffffffffffffffffffffff8214156104f3576104f26104fe565b5b600182019050919050565b7f4e487b7100000000000000000000000000000000000000000000000000000000600052601160045260246000fd5b7f5061757361626c653a206e6f7420706175736564000000000000000000000000600082015250565b7f5061757361626c653a207061757365640000000000000000000000000000000060008201525056fea2646970667358221220e6a1ba90bed5d1585ff6a50c857ebf7590e8793e9d45fe5c70078f970b6c822764736f6c63430008020033",
  "immutableReferences": {},
  "source": "// SPDX-License-Identifier: MIT\r\n\r\npragma solidity ^0.8.0;\r\n\r\nimport \"../security/Pausable.sol\";\r\n\r\ncontract PausableMock is Pausable {\r\n    bool public drasticMeasureTaken;\r\n    uint256 public count;\r\n\r\n    constructor() {\r\n        drasticMeasureTaken = false;\r\n        count = 0;\r\n    }\r\n\r\n    function normalProcess() external whenNotPaused {\r\n        count++;\r\n    }\r\n\r\n    function drasticMeasure() external whenPaused {\r\n        drasticMeasureTaken = true;\r\n    }\r\n\r\n    function pause() external {\r\n        _pause();\r\n    }\r\n\r\n    function unpause() external {\r\n        _unpause();\r\n    }\r\n}\r\n",
  "sourcePath": "C:\\Users\\Administrator\\Downloads\\lofi_marketplace_frontend\\contracts\\openzeppelin-solidity\\contracts\\mocks\\PausableMock.sol",
  "compiler": {
    "name": "solc",
    "version": "0.8.2+commit.661d1103.Emscripten.clang"
  },
  "schemaVersion": "3.4.5",
  "updatedAt": "2022-02-21T16:24:46.804Z",
  "devdoc": {
    "kind": "dev",
    "methods": {
      "paused()": {
        "details": "Returns true if the contract is paused, and false otherwise."
      }
    },
    "version": 1
  },
  "userdoc": {
    "kind": "user",
    "methods": {},
    "version": 1
  }
}