{
  "contractName": "PhotoNFTMarketplace",
  "abi": [
    {
      "inputs": [
        {
          "internalType": "contract PhotoNFTData",
          "name": "_photoNFTData",
          "type": "address"
        },
        {
          "internalType": "address",
          "name": "owner",
          "type": "address"
        }
      ],
      "stateMutability": "nonpayable",
      "type": "constructor"
    },
    {
      "anonymous": false,
      "inputs": [
        {
          "indexed": false,
          "internalType": "address",
          "name": "owner",
          "type": "address"
        },
        {
          "indexed": false,
          "internalType": "address",
          "name": "sender",
          "type": "address"
        }
      ],
      "name": "OpenTradeInfo",
      "type": "event"
    },
    {
      "anonymous": false,
      "inputs": [
        {
          "indexed": false,
          "internalType": "contract PhotoNFT",
          "name": "photoNFT",
          "type": "address"
        },
        {
          "indexed": false,
          "internalType": "uint256",
          "name": "photoId",
          "type": "uint256"
        },
        {
          "indexed": false,
          "internalType": "address",
          "name": "ownerBeforeOwnershipTransferred",
          "type": "address"
        },
        {
          "indexed": false,
          "internalType": "address",
          "name": "ownerAfterOwnershipTransferred",
          "type": "address"
        }
      ],
      "name": "PhotoNFTOwnershipChanged",
      "type": "event"
    },
    {
      "anonymous": false,
      "inputs": [
        {
          "indexed": false,
          "internalType": "address",
          "name": "ad",
          "type": "address"
        },
        {
          "indexed": false,
          "internalType": "bool",
          "name": "status",
          "type": "bool"
        }
      ],
      "name": "TradePremiumStatusChange",
      "type": "event"
    },
    {
      "anonymous": false,
      "inputs": [
        {
          "indexed": false,
          "internalType": "address",
          "name": "ad",
          "type": "address"
        },
        {
          "indexed": false,
          "internalType": "bytes32",
          "name": "status",
          "type": "bytes32"
        }
      ],
      "name": "TradeStatusChange",
      "type": "event"
    },
    {
      "inputs": [],
      "name": "PHOTO_NFT_MARKETPLACE",
      "outputs": [
        {
          "internalType": "address",
          "name": "",
          "type": "address"
        }
      ],
      "stateMutability": "view",
      "type": "function",
      "constant": true
    },
    {
      "inputs": [],
      "name": "_market_owner",
      "outputs": [
        {
          "internalType": "address",
          "name": "",
          "type": "address"
        }
      ],
      "stateMutability": "view",
      "type": "function",
      "constant": true
    },
    {
      "inputs": [
        {
          "internalType": "contract PhotoNFT",
          "name": "photoNFT",
          "type": "address"
        },
        {
          "internalType": "uint256",
          "name": "_photoId",
          "type": "uint256"
        }
      ],
      "name": "cancelTrade",
      "outputs": [],
      "stateMutability": "nonpayable",
      "type": "function"
    },
    {
      "inputs": [
        {
          "internalType": "contract PhotoNFT",
          "name": "photoNFT",
          "type": "address"
        }
      ],
      "name": "getTrade",
      "outputs": [
        {
          "components": [
            {
              "internalType": "address",
              "name": "seller",
              "type": "address"
            },
            {
              "internalType": "uint256",
              "name": "photoId",
              "type": "uint256"
            },
            {
              "internalType": "uint256",
              "name": "photoPrice",
              "type": "uint256"
            },
            {
              "internalType": "bytes32",
              "name": "status",
              "type": "bytes32"
            },
            {
              "internalType": "bool",
              "name": "premiumStatus",
              "type": "bool"
            }
          ],
          "internalType": "struct PhotoNFTTradable.Trade",
          "name": "trade_",
          "type": "tuple"
        }
      ],
      "stateMutability": "view",
      "type": "function",
      "constant": true
    },
    {
      "inputs": [
        {
          "internalType": "contract PhotoNFT",
          "name": "photoNFT",
          "type": "address"
        },
        {
          "internalType": "uint256",
          "name": "_photoId",
          "type": "uint256"
        },
        {
          "internalType": "uint256",
          "name": "price",
          "type": "uint256"
        }
      ],
      "name": "openTrade",
      "outputs": [],
      "stateMutability": "nonpayable",
      "type": "function"
    },
    {
      "inputs": [],
      "name": "photoNFTData",
      "outputs": [
        {
          "internalType": "contract PhotoNFTData",
          "name": "",
          "type": "address"
        }
      ],
      "stateMutability": "view",
      "type": "function",
      "constant": true
    },
    {
      "inputs": [
        {
          "internalType": "contract PhotoNFT",
          "name": "photoNFT",
          "type": "address"
        },
        {
          "internalType": "uint256",
          "name": "_photoId",
          "type": "uint256"
        },
        {
          "internalType": "uint256",
          "name": "_photoPrice",
          "type": "uint256"
        },
        {
          "internalType": "address",
          "name": "seller",
          "type": "address"
        }
      ],
      "name": "registerTradeWhenCreateNewPhotoNFT",
      "outputs": [],
      "stateMutability": "nonpayable",
      "type": "function"
    },
    {
      "inputs": [
        {
          "internalType": "address",
          "name": "",
          "type": "address"
        }
      ],
      "name": "trades",
      "outputs": [
        {
          "internalType": "address",
          "name": "seller",
          "type": "address"
        },
        {
          "internalType": "uint256",
          "name": "photoId",
          "type": "uint256"
        },
        {
          "internalType": "uint256",
          "name": "photoPrice",
          "type": "uint256"
        },
        {
          "internalType": "bytes32",
          "name": "status",
          "type": "bytes32"
        },
        {
          "internalType": "bool",
          "name": "premiumStatus",
          "type": "bool"
        }
      ],
      "stateMutability": "view",
      "type": "function",
      "constant": true
    },
    {
      "inputs": [
        {
          "internalType": "contract PhotoNFT",
          "name": "_photoNFT",
          "type": "address"
        },
        {
          "internalType": "uint256",
          "name": "_photoId",
          "type": "uint256"
        },
        {
          "internalType": "address",
          "name": "_buyer",
          "type": "address"
        }
      ],
      "name": "transferOwnershipOfPhotoNFT",
      "outputs": [],
      "stateMutability": "nonpayable",
      "type": "function"
    },
    {
      "inputs": [
        {
          "internalType": "contract PhotoNFT",
          "name": "photoNFT",
          "type": "address"
        },
        {
          "internalType": "uint256",
          "name": "_photoId",
          "type": "uint256"
        },
        {
          "internalType": "bool",
          "name": "_newState",
          "type": "bool"
        }
      ],
      "name": "updatePremiumStatus",
      "outputs": [],
      "stateMutability": "nonpayable",
      "type": "function"
    },
    {
      "inputs": [],
      "name": "getOwnerPayableAddress",
      "outputs": [
        {
          "internalType": "address payable",
          "name": "",
          "type": "address"
        }
      ],
      "stateMutability": "nonpayable",
      "type": "function"
    },
    {
      "inputs": [
        {
          "internalType": "contract PhotoNFT",
          "name": "_photoNFT",
          "type": "address"
        }
      ],
      "name": "buyPhotoNFT",
      "outputs": [
        {
          "internalType": "bool",
          "name": "",
          "type": "bool"
        }
      ],
      "stateMutability": "payable",
      "type": "function",
      "payable": true
    },
    {
      "inputs": [
        {
          "internalType": "address",
          "name": "newOwner",
          "type": "address"
        }
      ],
      "name": "transferMarketplaceOwnership",
      "outputs": [
        {
          "internalType": "bool",
          "name": "",
          "type": "bool"
        }
      ],
      "stateMutability": "nonpayable",
      "type": "function"
    },
    {
      "inputs": [
        {
          "internalType": "address",
          "name": "from",
          "type": "address"
        },
        {
          "internalType": "address",
          "name": "to",
          "type": "address"
        },
        {
          "internalType": "uint256",
          "name": "photoId",
          "type": "uint256"
        }
      ],
      "name": "reputation",
      "outputs": [
        {
          "internalType": "uint256",
          "name": "",
          "type": "uint256"
        },
        {
          "internalType": "uint256",
          "name": "",
          "type": "uint256"
        }
      ],
      "stateMutability": "nonpayable",
      "type": "function"
    },
    {
      "inputs": [
        {
          "internalType": "uint256",
          "name": "photoId",
          "type": "uint256"
        }
      ],
      "name": "getReputationCount",
      "outputs": [
        {
          "internalType": "uint256",
          "name": "",
          "type": "uint256"
        }
      ],
      "stateMutability": "view",
      "type": "function",
      "constant": true
    }
  ],
  "bytecode": "0x60806040523480156200001157600080fd5b506040516200270b3803806200270b83398181016040528101906200003791906200013e565b81806000806101000a81548173ffffffffffffffffffffffffffffffffffffffff021916908373ffffffffffffffffffffffffffffffffffffffff160217905550600060028190555050816000806101000a81548173ffffffffffffffffffffffffffffffffffffffff021916908373ffffffffffffffffffffffffffffffffffffffff160217905550600030905081600460006101000a81548173ffffffffffffffffffffffffffffffffffffffff021916908373ffffffffffffffffffffffffffffffffffffffff160217905550505050620001fb565b6000815190506200012181620001c7565b92915050565b6000815190506200013881620001e1565b92915050565b600080604083850312156200015257600080fd5b6000620001628582860162000127565b9250506020620001758582860162000110565b9150509250929050565b60006200018c82620001a7565b9050919050565b6000620001a0826200017f565b9050919050565b600073ffffffffffffffffffffffffffffffffffffffff82169050919050565b620001d2816200017f565b8114620001de57600080fd5b50565b620001ec8162000193565b8114620001f857600080fd5b50565b612500806200020b6000396000f3fe6080604052600436106100e85760003560e01c8063a2793daf1161008a578063c6175d8b11610059578063c6175d8b14610322578063dee98aad1461034d578063ec03951414610376578063f41fc1bb146103a1576100e8565b8063a2793daf1461023d578063a9f752e51461027b578063ab7a6c3e146102bc578063baea40e2146102f9576100e8565b80634fe71d13116100c65780634fe71d1314610183578063759c4bf3146101ae5780637cc0c9bd146101d75780638d6b52f314610214576100e8565b80631206dc5f146100ed57806316f946ef1461012a578063493c21761461015a575b600080fd5b3480156100f957600080fd5b50610114600480360381019061010f91906117e4565b6103cc565b6040516101219190611e67565b60405180910390f35b610144600480360381019061013f91906118ae565b6104a4565b6040516101519190611e67565b60405180910390f35b34801561016657600080fd5b50610181600480360381019061017c9190611913565b610900565b005b34801561018f57600080fd5b50610198610a5e565b6040516101a59190611d07565b60405180910390f35b3480156101ba57600080fd5b506101d560048036038101906101d091906118d7565b610a84565b005b3480156101e357600080fd5b506101fe60048036038101906101f99190611aa4565b610d04565b60405161020b9190612062565b60405180910390f35b34801561022057600080fd5b5061023b60048036038101906102369190611962565b610d10565b005b34801561024957600080fd5b50610264600480360381019061025f9190611836565b610eee565b60405161027292919061207d565b60405180910390f35b34801561028757600080fd5b506102a2600480360381019061029d91906117e4565b610f00565b6040516102b3959493929190611e14565b60405180910390f35b3480156102c857600080fd5b506102e360048036038101906102de91906118ae565b610f63565b6040516102f09190612047565b60405180910390f35b34801561030557600080fd5b50610320600480360381019061031b91906119b1565b611051565b005b34801561032e57600080fd5b506103376112ad565b6040516103449190611d07565b60405180910390f35b34801561035957600080fd5b50610374600480360381019061036f9190611a00565b6112d3565b005b34801561038257600080fd5b5061038b61141a565b6040516103989190611e82565b60405180910390f35b3480156103ad57600080fd5b506103b661143e565b6040516103c39190611d22565b60405180910390f35b6000600460009054906101000a900473ffffffffffffffffffffffffffffffffffffffff1673ffffffffffffffffffffffffffffffffffffffff163373ffffffffffffffffffffffffffffffffffffffff161461045e576040517f08c379a000000000000000000000000000000000000000000000000000000000815260040161045590612027565b60405180910390fd5b81600460006101000a81548173ffffffffffffffffffffffffffffffffffffffff021916908373ffffffffffffffffffffffffffffffffffffffff160217905550919050565b60008082905060008060009054906101000a900473ffffffffffffffffffffffffffffffffffffffff1673ffffffffffffffffffffffffffffffffffffffff16637fd6c405836040518263ffffffff1660e01b81526004016105069190611e9d565b60006040518083038186803b15801561051e57600080fd5b505afa158015610532573d6000803e3d6000fd5b505050506040513d6000823e3d601f19601f8201168201806040525081019061055b9190611a63565b905060008160400151905060008190506000836060015190508173ffffffffffffffffffffffffffffffffffffffff166108fc349081150290604051600060405180830381858888f193505050501580156105ba573d6000803e3d6000fd5b5060003390506000600190508673ffffffffffffffffffffffffffffffffffffffff1663095ea7b383836040518363ffffffff1660e01b8152600401610601929190611deb565b600060405180830381600087803b15801561061b57600080fd5b505af115801561062f573d6000803e3d6000fd5b5050505060008773ffffffffffffffffffffffffffffffffffffffff16636352211e836040518263ffffffff1660e01b815260040161066e9190612062565b60206040518083038186803b15801561068657600080fd5b505afa15801561069a573d6000803e3d6000fd5b505050506040513d601f19601f820116820180604052508101906106be919061180d565b90506106cb888385610900565b60008054906101000a900473ffffffffffffffffffffffffffffffffffffffff1673ffffffffffffffffffffffffffffffffffffffff16637cb1479b89856040518363ffffffff1660e01b8152600401610726929190611eb8565b602060405180830381600087803b15801561074057600080fd5b505af1158015610754573d6000803e3d6000fd5b505050506040513d601f19601f820116820180604052508101906107789190611885565b5060008054906101000a900473ffffffffffffffffffffffffffffffffffffffff1673ffffffffffffffffffffffffffffffffffffffff1663bd8afa9f8960006040518363ffffffff1660e01b81526004016107d5929190611f0a565b602060405180830381600087803b1580156107ef57600080fd5b505af1158015610803573d6000803e3d6000fd5b505050506040513d601f19601f820116820180604052508101906108279190611885565b5060008873ffffffffffffffffffffffffffffffffffffffff16636352211e846040518263ffffffff1660e01b81526004016108639190612062565b60206040518083038186803b15801561087b57600080fd5b505afa15801561088f573d6000803e3d6000fd5b505050506040513d601f19601f820116820180604052508101906108b3919061180d565b90507fa8ffd0052cf94298cdb4d728ccaebde44f94e7568e31b2129a24a8b2e10fea8c898484846040516108ea9493929190611f82565b60405180910390a1505050505050505050919050565b6000839050600061091085610f63565b90507f4f70656e00000000000000000000000000000000000000000000000000000000816060015114610978576040517f08c379a000000000000000000000000000000000000000000000000000000000815260040161096f90612007565b60405180910390fd5b610983858585611468565b8173ffffffffffffffffffffffffffffffffffffffff166323b872dd308584602001516040518463ffffffff1660e01b81526004016109c493929190611d3d565b600060405180830381600087803b1580156109de57600080fd5b505af11580156109f2573d6000803e3d6000fd5b505050507f43616e63656c6c656400000000000000000000000000000000000000000000008160600181815250507fee0bd10dbd5c2151f43ed2fa6af0584fbad842aa901d657f39fffd140822ae7085604051610a4f9190611d9d565b60405180910390a15050505050565b600360009054906101000a900473ffffffffffffffffffffffffffffffffffffffff1681565b6000600160008473ffffffffffffffffffffffffffffffffffffffff1673ffffffffffffffffffffffffffffffffffffffff16815260200190815260200160002090508060000160009054906101000a900473ffffffffffffffffffffffffffffffffffffffff1673ffffffffffffffffffffffffffffffffffffffff163373ffffffffffffffffffffffffffffffffffffffff1614610b59576040517f08c379a0000000000000000000000000000000000000000000000000000000008152600401610b5090611fc7565b60405180910390fd5b60008054906101000a900473ffffffffffffffffffffffffffffffffffffffff1673ffffffffffffffffffffffffffffffffffffffff1663bd8afa9f8460006040518363ffffffff1660e01b8152600401610bb5929190611f0a565b602060405180830381600087803b158015610bcf57600080fd5b505af1158015610be3573d6000803e3d6000fd5b505050506040513d601f19601f82011682018060405250810190610c079190611885565b508273ffffffffffffffffffffffffffffffffffffffff166323b872dd308360000160009054906101000a900473ffffffffffffffffffffffffffffffffffffffff1684600101546040518463ffffffff1660e01b8152600401610c6d93929190611d3d565b600060405180830381600087803b158015610c8757600080fd5b505af1158015610c9b573d6000803e3d6000fd5b505050507f43616e63656c6c6564000000000000000000000000000000000000000000000081600301819055507fee0bd10dbd5c2151f43ed2fa6af0584fbad842aa901d657f39fffd140822ae7083604051610cf79190611d9d565b60405180910390a1505050565b60008080915050919050565b6000600160008573ffffffffffffffffffffffffffffffffffffffff1673ffffffffffffffffffffffffffffffffffffffff16815260200190815260200160002090508060000160009054906101000a900473ffffffffffffffffffffffffffffffffffffffff1673ffffffffffffffffffffffffffffffffffffffff163373ffffffffffffffffffffffffffffffffffffffff1614610de5576040517f08c379a0000000000000000000000000000000000000000000000000000000008152600401610ddc90611fe7565b60405180910390fd5b60008054906101000a900473ffffffffffffffffffffffffffffffffffffffff1673ffffffffffffffffffffffffffffffffffffffff1663c4d55c6885846040518363ffffffff1660e01b8152600401610e40929190611ee1565b602060405180830381600087803b158015610e5a57600080fd5b505af1158015610e6e573d6000803e3d6000fd5b505050506040513d601f19601f82011682018060405250810190610e929190611885565b50818160040160006101000a81548160ff0219169083151502179055507ff914bff822f938e06c0aaceb42bb4ca99085426a1e493b755e716662d12163ee8483604051610ee0929190611d74565b60405180910390a150505050565b60008060008091509150935093915050565b60016020528060005260406000206000915090508060000160009054906101000a900473ffffffffffffffffffffffffffffffffffffffff16908060010154908060020154908060030154908060040160009054906101000a900460ff16905085565b610f6b6114f4565b6000600160008473ffffffffffffffffffffffffffffffffffffffff1673ffffffffffffffffffffffffffffffffffffffff1681526020019081526020016000206040518060a00160405290816000820160009054906101000a900473ffffffffffffffffffffffffffffffffffffffff1673ffffffffffffffffffffffffffffffffffffffff1673ffffffffffffffffffffffffffffffffffffffff1681526020016001820154815260200160028201548152602001600382015481526020016004820160009054906101000a900460ff161515151581525050905080915050919050565b6000600160008573ffffffffffffffffffffffffffffffffffffffff1673ffffffffffffffffffffffffffffffffffffffff16815260200190815260200160002090508060000160009054906101000a900473ffffffffffffffffffffffffffffffffffffffff1673ffffffffffffffffffffffffffffffffffffffff163373ffffffffffffffffffffffffffffffffffffffff1614611126576040517f08c379a000000000000000000000000000000000000000000000000000000000815260040161111d90611fe7565b60405180910390fd5b60008054906101000a900473ffffffffffffffffffffffffffffffffffffffff1673ffffffffffffffffffffffffffffffffffffffff1663bd8afa9f85846040518363ffffffff1660e01b8152600401611181929190611f46565b602060405180830381600087803b15801561119b57600080fd5b505af11580156111af573d6000803e3d6000fd5b505050506040513d601f19601f820116820180604052508101906111d39190611885565b508373ffffffffffffffffffffffffffffffffffffffff166323b872dd333084600101546040518463ffffffff1660e01b815260040161121593929190611d3d565b600060405180830381600087803b15801561122f57600080fd5b505af1158015611243573d6000803e3d6000fd5b505050507f4f70656e0000000000000000000000000000000000000000000000000000000081600301819055507fee0bd10dbd5c2151f43ed2fa6af0584fbad842aa901d657f39fffd140822ae708460405161129f9190611dc4565b60405180910390a150505050565b600460009054906101000a900473ffffffffffffffffffffffffffffffffffffffff1681565b6001600260008282546112e6919061210d565b925050819055506040518060a001604052808273ffffffffffffffffffffffffffffffffffffffff1681526020018481526020018381526020017f43616e63656c6c65640000000000000000000000000000000000000000000000815260200160001515815250600160008673ffffffffffffffffffffffffffffffffffffffff1673ffffffffffffffffffffffffffffffffffffffff16815260200190815260200160002060008201518160000160006101000a81548173ffffffffffffffffffffffffffffffffffffffff021916908373ffffffffffffffffffffffffffffffffffffffff16021790555060208201518160010155604082015181600201556060820151816003015560808201518160040160006101000a81548160ff02191690831515021790555090505050505050565b60008054906101000a900473ffffffffffffffffffffffffffffffffffffffff1681565b6000600460009054906101000a900473ffffffffffffffffffffffffffffffffffffffff16905090565b6000600160008573ffffffffffffffffffffffffffffffffffffffff1673ffffffffffffffffffffffffffffffffffffffff1681526020019081526020016000209050818160000160006101000a81548173ffffffffffffffffffffffffffffffffffffffff021916908373ffffffffffffffffffffffffffffffffffffffff16021790555050505050565b6040518060a00160405280600073ffffffffffffffffffffffffffffffffffffffff1681526020016000815260200160008152602001600080191681526020016000151581525090565b600061155161154c846120cb565b6120a6565b90508281526020810184848401111561156957600080fd5b611574848285612233565b509392505050565b60008135905061158b8161246e565b92915050565b6000815190506115a08161246e565b92915050565b6000813590506115b581612485565b92915050565b6000815190506115ca81612485565b92915050565b6000813590506115df8161249c565b92915050565b6000815190506115f48161249c565b92915050565b600082601f83011261160b57600080fd5b815161161b84826020860161153e565b91505092915050565b6000610180828403121561163757600080fd5b6116426101806120a6565b90506000611652848285016115e5565b600083015250602082015167ffffffffffffffff81111561167257600080fd5b61167e848285016115fa565b602083015250604061169284828501611591565b60408301525060606116a6848285016117cf565b606083015250608082015167ffffffffffffffff8111156116c657600080fd5b6116d2848285016115fa565b60808301525060a082015167ffffffffffffffff8111156116f257600080fd5b6116fe848285016115fa565b60a08301525060c0611712848285016117cf565b60c08301525060e0611726848285016115bb565b60e08301525061010082015167ffffffffffffffff81111561174757600080fd5b611753848285016115fa565b6101008301525061012082015167ffffffffffffffff81111561177557600080fd5b611781848285016115fa565b61012083015250610140611797848285016117cf565b610140830152506101606117ad848285016117cf565b6101608301525092915050565b6000813590506117c9816124b3565b92915050565b6000815190506117de816124b3565b92915050565b6000602082840312156117f657600080fd5b60006118048482850161157c565b91505092915050565b60006020828403121561181f57600080fd5b600061182d84828501611591565b91505092915050565b60008060006060848603121561184b57600080fd5b60006118598682870161157c565b935050602061186a8682870161157c565b925050604061187b868287016117ba565b9150509250925092565b60006020828403121561189757600080fd5b60006118a5848285016115bb565b91505092915050565b6000602082840312156118c057600080fd5b60006118ce848285016115d0565b91505092915050565b600080604083850312156118ea57600080fd5b60006118f8858286016115d0565b9250506020611909858286016117ba565b9150509250929050565b60008060006060848603121561192857600080fd5b6000611936868287016115d0565b9350506020611947868287016117ba565b92505060406119588682870161157c565b9150509250925092565b60008060006060848603121561197757600080fd5b6000611985868287016115d0565b9350506020611996868287016117ba565b92505060406119a7868287016115a6565b9150509250925092565b6000806000606084860312156119c657600080fd5b60006119d4868287016115d0565b93505060206119e5868287016117ba565b92505060406119f6868287016117ba565b9150509250925092565b60008060008060808587031215611a1657600080fd5b6000611a24878288016115d0565b9450506020611a35878288016117ba565b9350506040611a46878288016117ba565b9250506060611a578782880161157c565b91505092959194509250565b600060208284031215611a7557600080fd5b600082015167ffffffffffffffff811115611a8f57600080fd5b611a9b84828501611624565b91505092915050565b600060208284031215611ab657600080fd5b6000611ac4848285016117ba565b91505092915050565b611ad681612175565b82525050565b611ae581612163565b82525050565b611af481612163565b82525050565b611b0381612187565b82525050565b611b1281612187565b82525050565b611b2181612193565b82525050565b611b3081612193565b82525050565b611b3f816121d9565b82525050565b611b4e816121fd565b82525050565b611b5d81612221565b82525050565b6000611b706026836120fc565b9150611b7b82612306565b604082019050919050565b6000611b936021836120fc565b9150611b9e82612355565b604082019050919050565b6000611bb66012836120fc565b9150611bc1826123a4565b602082019050919050565b7f43616e63656c6c65640000000000000000000000000000000000000000000000815250565b6000611bff6009836120fc565b9150611c0a826123cd565b602082019050919050565b7f4f70656e00000000000000000000000000000000000000000000000000000000815250565b6000611c486004836120fc565b9150611c53826123f6565b602082019050919050565b6000611c6b6021836120fc565b9150611c768261241f565b604082019050919050565b60a082016000820151611c976000850182611adc565b506020820151611caa6020850182611ce9565b506040820151611cbd6040850182611ce9565b506060820151611cd06060850182611b18565b506080820151611ce36080850182611afa565b50505050565b611cf2816121cf565b82525050565b611d01816121cf565b82525050565b6000602082019050611d1c6000830184611aeb565b92915050565b6000602082019050611d376000830184611acd565b92915050565b6000606082019050611d526000830186611aeb565b611d5f6020830185611aeb565b611d6c6040830184611cf8565b949350505050565b6000604082019050611d896000830185611aeb565b611d966020830184611b09565b9392505050565b6000604082019050611db26000830184611aeb565b611dbe60208301611bcc565b92915050565b6000604082019050611dd96000830184611aeb565b611de560208301611c15565b92915050565b6000604082019050611e006000830185611aeb565b611e0d6020830184611cf8565b9392505050565b600060a082019050611e296000830188611aeb565b611e366020830187611cf8565b611e436040830186611cf8565b611e506060830185611b27565b611e5d6080830184611b09565b9695505050505050565b6000602082019050611e7c6000830184611b09565b92915050565b6000602082019050611e976000830184611b36565b92915050565b6000602082019050611eb26000830184611b45565b92915050565b6000604082019050611ecd6000830185611b45565b611eda6020830184611aeb565b9392505050565b6000604082019050611ef66000830185611b45565b611f036020830184611b09565b9392505050565b6000606082019050611f1f6000830185611b45565b8181036020830152611f3081611bf2565b9050611f3f6040830184611b54565b9392505050565b6000606082019050611f5b6000830185611b45565b8181036020830152611f6c81611c3b565b9050611f7b6040830184611cf8565b9392505050565b6000608082019050611f976000830187611b45565b611fa46020830186611cf8565b611fb16040830185611aeb565b611fbe6060830184611aeb565b95945050505050565b60006020820190508181036000830152611fe081611b63565b9050919050565b6000602082019050818103600083015261200081611b86565b9050919050565b6000602082019050818103600083015261202081611ba9565b9050919050565b6000602082019050818103600083015261204081611c5e565b9050919050565b600060a08201905061205c6000830184611c81565b92915050565b60006020820190506120776000830184611cf8565b92915050565b60006040820190506120926000830185611cf8565b61209f6020830184611cf8565b9392505050565b60006120b06120c1565b90506120bc8282612266565b919050565b6000604051905090565b600067ffffffffffffffff8211156120e6576120e56122c6565b5b6120ef826122f5565b9050602081019050919050565b600082825260208201905092915050565b6000612118826121cf565b9150612123836121cf565b9250827fffffffffffffffffffffffffffffffffffffffffffffffffffffffffffffffff0382111561215857612157612297565b5b828201905092915050565b600061216e826121af565b9050919050565b6000612180826121af565b9050919050565b60008115159050919050565b6000819050919050565b60006121a882612163565b9050919050565b600073ffffffffffffffffffffffffffffffffffffffff82169050919050565b6000819050919050565b60006121e4826121eb565b9050919050565b60006121f6826121af565b9050919050565b60006122088261220f565b9050919050565b600061221a826121af565b9050919050565b600061222c826121cf565b9050919050565b60005b83811015612251578082015181840152602081019050612236565b83811115612260576000848401525b50505050565b61226f826122f5565b810181811067ffffffffffffffff8211171561228e5761228d6122c6565b5b80604052505050565b7f4e487b7100000000000000000000000000000000000000000000000000000000600052601160045260246000fd5b7f4e487b7100000000000000000000000000000000000000000000000000000000600052604160045260246000fd5b6000601f19601f8301169050919050565b7f54726164652063616e2062652063616e63656c6c6564206f6e6c79206279207360008201527f656c6c65722e0000000000000000000000000000000000000000000000000000602082015250565b7f54726164652063616e206265206f70656e206f6e6c792062792073656c6c657260008201527f2e00000000000000000000000000000000000000000000000000000000000000602082015250565b7f5472616465206973206e6f74204f70656e2e0000000000000000000000000000600082015250565b7f43616e63656c6c65640000000000000000000000000000000000000000000000600082015250565b7f4f70656e00000000000000000000000000000000000000000000000000000000600082015250565b7f73656e6465722073686f756c6420626520746865206d61726b6574206f776e6560008201527f7200000000000000000000000000000000000000000000000000000000000000602082015250565b61247781612163565b811461248257600080fd5b50565b61248e81612187565b811461249957600080fd5b50565b6124a58161219d565b81146124b057600080fd5b50565b6124bc816121cf565b81146124c757600080fd5b5056fea26469706673582212204677ba0818d039df1c7b91640d1f297684c875f8b67065ab86477d8dd0da8bc064736f6c63430008020033",
  "immutableReferences": {},
  "source": "// SPDX-License-Identifier: MIT\r\npragma solidity ^0.8.0;\r\npragma experimental ABIEncoderV2;\r\n\r\n//import { ERC20 } from './openzeppelin-solidity/contracts/token/ERC20/ERC20.sol';\r\nimport {PhotoNFT} from \"./PhotoNFT.sol\";\r\nimport {PhotoNFTTradable} from \"./PhotoNFTTradable.sol\";\r\nimport {PhotoNFTMarketplaceEvents} from \"./photo-nft-marketplace/commons/PhotoNFTMarketplaceEvents.sol\";\r\nimport {PhotoNFTData} from \"./PhotoNFTData.sol\";\r\n\r\ncontract PhotoNFTMarketplace is PhotoNFTTradable, PhotoNFTMarketplaceEvents {\r\n    address public PHOTO_NFT_MARKETPLACE;\r\n\r\n    // address private _market_owner;\r\n    address public _market_owner;\r\n\r\n    // PhotoNFTData public photoNFTData;\r\n\r\n    constructor(PhotoNFTData _photoNFTData, address owner)\r\n        public\r\n        PhotoNFTTradable(_photoNFTData)\r\n    {\r\n        photoNFTData = _photoNFTData;\r\n        address payable PHOTO_NFT_MARKETPLACE = payable(address(this));\r\n        _market_owner = owner;\r\n    }\r\n\r\n    function getOwnerPayableAddress() public returns (address payable) {\r\n        return payable(_market_owner);\r\n    }\r\n\r\n    /**\r\n     * @notice - Buy function is that buy NFT token and ownership transfer. (Reference from IERC721.sol)\r\n     * @notice - msg.sender buy NFT with ETH (msg.value)\r\n     * @notice - PhotoID is always 1. Because each photoNFT is unique.\r\n     */\r\n    function buyPhotoNFT(PhotoNFT _photoNFT) public payable returns (bool) {\r\n        PhotoNFT photoNFT = _photoNFT;\r\n\r\n        PhotoNFTData.Photo memory photo = photoNFTData.getPhotoByNFTAddress(\r\n            photoNFT\r\n        );\r\n        address _seller = photo.ownerAddress; // Owner\r\n        address payable seller = payable(_seller); // Convert owner address with payable\r\n        uint256 buyAmount = photo.photoPrice;\r\n        // require(\r\n        //     msg.value == buyAmount,\r\n        //     \"msg.value should be equal to the buyAmount\"\r\n        // );\r\n\r\n        // Bought-amount is transferred into a seller wallet\r\n        seller.transfer(msg.value);\r\n\r\n        // Approve a buyer address as a receiver before NFT's transferFrom method is executed\r\n        address buyer = msg.sender;\r\n        uint256 photoId = 1; // [Note]: PhotoID is always 1. Because each photoNFT is unique.\r\n        photoNFT.approve(buyer, photoId);\r\n\r\n        address ownerBeforeOwnershipTransferred = photoNFT.ownerOf(photoId);\r\n\r\n        // Transfer Ownership of the PhotoNFT from a seller to a buyer\r\n        transferOwnershipOfPhotoNFT(photoNFT, photoId, buyer);\r\n        photoNFTData.updateOwnerOfPhotoNFT(photoNFT, buyer);\r\n        photoNFTData.updateStatus(photoNFT, \"Cancelled\", 0);\r\n\r\n        // Event for checking result of transferring ownership of a photoNFT\r\n        address ownerAfterOwnershipTransferred = photoNFT.ownerOf(photoId);\r\n        emit PhotoNFTOwnershipChanged(\r\n            photoNFT,\r\n            photoId,\r\n            ownerBeforeOwnershipTransferred,\r\n            ownerAfterOwnershipTransferred\r\n        );\r\n\r\n        // Mint a photo with a new photoId\r\n        //string memory tokenURI = photoNFTFactory.getTokenURI(photoData.ipfsHashOfPhoto);  // [Note]: IPFS hash + URL\r\n        //photoNFT.mint(msg.sender, tokenURI);\r\n    }\r\n\r\n    function transferMarketplaceOwnership(address newOwner)\r\n        public\r\n        returns (bool)\r\n    {\r\n        // only the owner can send this\r\n        require(\r\n            msg.sender == _market_owner,\r\n            \"sender should be the market owner\"\r\n        );\r\n        //set the marketplace owner\r\n        _market_owner = newOwner;\r\n    }\r\n\r\n    ///-----------------------------------------------------\r\n    /// Methods below are pending methods\r\n    ///-----------------------------------------------------\r\n\r\n    /**\r\n     * @dev reputation function is that gives reputation to a user who has ownership of being posted photo.\r\n     * @dev Each user has reputation data in struct\r\n     */\r\n    function reputation(\r\n        address from,\r\n        address to,\r\n        uint256 photoId\r\n    ) public returns (uint256, uint256) {\r\n        // Photo storage photo = photos[photoId];\r\n        // photo.reputation = photo.reputation.add(1);\r\n\r\n        // emit AddReputation(photoId, photo.reputation);\r\n\r\n        // return (photoId, photo.reputation);\r\n        return (0, 0);\r\n    }\r\n\r\n    function getReputationCount(uint256 photoId) public view returns (uint256) {\r\n        uint256 curretReputationCount;\r\n\r\n        // Photo memory photo = photos[photoId];\r\n        // curretReputationCount = photo.reputation;\r\n\r\n        return curretReputationCount;\r\n    }\r\n}\r\n",
  "sourcePath": "C:\\Users\\Administrator\\Downloads\\lofi_marketplace_frontend\\contracts\\PhotoNFTMarketplace.sol",
  "compiler": {
    "name": "solc",
    "version": "0.8.2+commit.661d1103.Emscripten.clang"
  },
  "schemaVersion": "3.4.5",
  "updatedAt": "2022-02-21T16:29:05.134Z",
  "networkType": "ethereum",
  "devdoc": {
    "kind": "dev",
    "methods": {
      "cancelTrade(address,uint256)": {
        "details": "Cancels a trade by the seller."
      },
      "getTrade(address)": {
        "details": "- Returns the details for a trade."
      },
      "openTrade(address,uint256,uint256)": {
        "details": "Opens a trade by the seller."
      },
      "registerTradeWhenCreateNewPhotoNFT(address,uint256,uint256,address)": {
        "details": "Opens a new trade. Puts _photoId in escrow.",
        "params": {
          "_photoId": "The id for the photoId to trade.",
          "_photoPrice": "The amount of currency for which to trade the photoId."
        }
      },
      "reputation(address,address,uint256)": {
        "details": "reputation function is that gives reputation to a user who has ownership of being posted photo.Each user has reputation data in struct"
      },
      "transferOwnershipOfPhotoNFT(address,uint256,address)": {
        "details": "Executes a trade. Must have approved this contract to transfer the amount of currency specified to the seller. Transfers ownership of the photoId to the filler."
      },
      "updatePremiumStatus(address,uint256,bool)": {
        "details": "Opens a trade by the seller."
      }
    },
    "version": 1
  },
  "userdoc": {
    "kind": "user",
    "methods": {
      "buyPhotoNFT(address)": {
        "notice": "- Buy function is that buy NFT token and ownership transfer. (Reference from IERC721.sol)- msg.sender buy NFT with ETH (msg.value)- PhotoID is always 1. Because each photoNFT is unique."
      },
      "registerTradeWhenCreateNewPhotoNFT(address,uint256,uint256,address)": {
        "notice": "- This method is only executed when a seller create a new PhotoNFT"
      }
    },
    "version": 1
  }
}