{
  "contractName": "PhotoNFTTradable",
  "abi": [
    {
      "inputs": [
        {
          "internalType": "contract PhotoNFTData",
          "name": "_photoNFTData",
          "type": "address"
        }
      ],
      "stateMutability": "nonpayable",
      "type": "constructor"
    },
    {
      "anonymous": false,
      "inputs": [
        {
          "indexed": false,
          "internalType": "address",
          "name": "owner",
          "type": "address"
        },
        {
          "indexed": false,
          "internalType": "address",
          "name": "sender",
          "type": "address"
        }
      ],
      "name": "OpenTradeInfo",
      "type": "event"
    },
    {
      "anonymous": false,
      "inputs": [
        {
          "indexed": false,
          "internalType": "address",
          "name": "ad",
          "type": "address"
        },
        {
          "indexed": false,
          "internalType": "bool",
          "name": "status",
          "type": "bool"
        }
      ],
      "name": "TradePremiumStatusChange",
      "type": "event"
    },
    {
      "anonymous": false,
      "inputs": [
        {
          "indexed": false,
          "internalType": "address",
          "name": "ad",
          "type": "address"
        },
        {
          "indexed": false,
          "internalType": "bytes32",
          "name": "status",
          "type": "bytes32"
        }
      ],
      "name": "TradeStatusChange",
      "type": "event"
    },
    {
      "inputs": [],
      "name": "photoNFTData",
      "outputs": [
        {
          "internalType": "contract PhotoNFTData",
          "name": "",
          "type": "address"
        }
      ],
      "stateMutability": "view",
      "type": "function",
      "constant": true
    },
    {
      "inputs": [
        {
          "internalType": "address",
          "name": "",
          "type": "address"
        }
      ],
      "name": "trades",
      "outputs": [
        {
          "internalType": "address",
          "name": "seller",
          "type": "address"
        },
        {
          "internalType": "uint256",
          "name": "photoId",
          "type": "uint256"
        },
        {
          "internalType": "uint256",
          "name": "photoPrice",
          "type": "uint256"
        },
        {
          "internalType": "bytes32",
          "name": "status",
          "type": "bytes32"
        },
        {
          "internalType": "bool",
          "name": "premiumStatus",
          "type": "bool"
        }
      ],
      "stateMutability": "view",
      "type": "function",
      "constant": true
    },
    {
      "inputs": [
        {
          "internalType": "contract PhotoNFT",
          "name": "photoNFT",
          "type": "address"
        },
        {
          "internalType": "uint256",
          "name": "_photoId",
          "type": "uint256"
        },
        {
          "internalType": "uint256",
          "name": "_photoPrice",
          "type": "uint256"
        },
        {
          "internalType": "address",
          "name": "seller",
          "type": "address"
        }
      ],
      "name": "registerTradeWhenCreateNewPhotoNFT",
      "outputs": [],
      "stateMutability": "nonpayable",
      "type": "function"
    },
    {
      "inputs": [
        {
          "internalType": "contract PhotoNFT",
          "name": "photoNFT",
          "type": "address"
        },
        {
          "internalType": "uint256",
          "name": "_photoId",
          "type": "uint256"
        },
        {
          "internalType": "uint256",
          "name": "price",
          "type": "uint256"
        }
      ],
      "name": "openTrade",
      "outputs": [],
      "stateMutability": "nonpayable",
      "type": "function"
    },
    {
      "inputs": [
        {
          "internalType": "contract PhotoNFT",
          "name": "photoNFT",
          "type": "address"
        },
        {
          "internalType": "uint256",
          "name": "_photoId",
          "type": "uint256"
        }
      ],
      "name": "cancelTrade",
      "outputs": [],
      "stateMutability": "nonpayable",
      "type": "function"
    },
    {
      "inputs": [
        {
          "internalType": "contract PhotoNFT",
          "name": "photoNFT",
          "type": "address"
        },
        {
          "internalType": "uint256",
          "name": "_photoId",
          "type": "uint256"
        },
        {
          "internalType": "bool",
          "name": "_newState",
          "type": "bool"
        }
      ],
      "name": "updatePremiumStatus",
      "outputs": [],
      "stateMutability": "nonpayable",
      "type": "function"
    },
    {
      "inputs": [
        {
          "internalType": "contract PhotoNFT",
          "name": "_photoNFT",
          "type": "address"
        },
        {
          "internalType": "uint256",
          "name": "_photoId",
          "type": "uint256"
        },
        {
          "internalType": "address",
          "name": "_buyer",
          "type": "address"
        }
      ],
      "name": "transferOwnershipOfPhotoNFT",
      "outputs": [],
      "stateMutability": "nonpayable",
      "type": "function"
    },
    {
      "inputs": [
        {
          "internalType": "contract PhotoNFT",
          "name": "photoNFT",
          "type": "address"
        }
      ],
      "name": "getTrade",
      "outputs": [
        {
          "components": [
            {
              "internalType": "address",
              "name": "seller",
              "type": "address"
            },
            {
              "internalType": "uint256",
              "name": "photoId",
              "type": "uint256"
            },
            {
              "internalType": "uint256",
              "name": "photoPrice",
              "type": "uint256"
            },
            {
              "internalType": "bytes32",
              "name": "status",
              "type": "bytes32"
            },
            {
              "internalType": "bool",
              "name": "premiumStatus",
              "type": "bool"
            }
          ],
          "internalType": "struct PhotoNFTTradable.Trade",
          "name": "trade_",
          "type": "tuple"
        }
      ],
      "stateMutability": "view",
      "type": "function",
      "constant": true
    }
  ],
  "bytecode": "0x60806040523480156200001157600080fd5b506040516200182f3803806200182f83398181016040528101906200003791906200009d565b806000806101000a81548173ffffffffffffffffffffffffffffffffffffffff021916908373ffffffffffffffffffffffffffffffffffffffff1602179055506000600281905550506200012b565b600081519050620000978162000111565b92915050565b600060208284031215620000b057600080fd5b6000620000c08482850162000086565b91505092915050565b6000620000d682620000f1565b9050919050565b6000620000ea82620000c9565b9050919050565b600073ffffffffffffffffffffffffffffffffffffffff82169050919050565b6200011c81620000dd565b81146200012857600080fd5b50565b6116f4806200013b6000396000f3fe608060405234801561001057600080fd5b50600436106100885760003560e01c8063ab7a6c3e1161005b578063ab7a6c3e14610115578063baea40e214610145578063dee98aad14610161578063ec0395141461017d57610088565b8063493c21761461008d578063759c4bf3146100a95780638d6b52f3146100c5578063a9f752e5146100e1575b600080fd5b6100a760048036038101906100a29190610e65565b61019b565b005b6100c360048036038101906100be9190610e29565b6102f9565b005b6100df60048036038101906100da9190610eb4565b610579565b005b6100fb60048036038101906100f69190610dae565b610757565b60405161010c95949392919061126b565b60405180910390f35b61012f600480360381019061012a9190610e00565b6107ba565b60405161013c91906113da565b60405180910390f35b61015f600480360381019061015a9190610f03565b6108a8565b005b61017b60048036038101906101769190610f52565b610b04565b005b610185610c4b565b60405161019291906112be565b60405180910390f35b600083905060006101ab856107ba565b90507f4f70656e00000000000000000000000000000000000000000000000000000000816060015114610213576040517f08c379a000000000000000000000000000000000000000000000000000000000815260040161020a906113ba565b60405180910390fd5b61021e858585610c6f565b8173ffffffffffffffffffffffffffffffffffffffff166323b872dd308584602001516040518463ffffffff1660e01b815260040161025f939291906111bd565b600060405180830381600087803b15801561027957600080fd5b505af115801561028d573d6000803e3d6000fd5b505050507f43616e63656c6c656400000000000000000000000000000000000000000000008160600181815250507fee0bd10dbd5c2151f43ed2fa6af0584fbad842aa901d657f39fffd140822ae70856040516102ea919061121d565b60405180910390a15050505050565b6000600160008473ffffffffffffffffffffffffffffffffffffffff1673ffffffffffffffffffffffffffffffffffffffff16815260200190815260200160002090508060000160009054906101000a900473ffffffffffffffffffffffffffffffffffffffff1673ffffffffffffffffffffffffffffffffffffffff163373ffffffffffffffffffffffffffffffffffffffff16146103ce576040517f08c379a00000000000000000000000000000000000000000000000000000000081526004016103c59061137a565b60405180910390fd5b60008054906101000a900473ffffffffffffffffffffffffffffffffffffffff1673ffffffffffffffffffffffffffffffffffffffff1663bd8afa9f8460006040518363ffffffff1660e01b815260040161042a929190611302565b602060405180830381600087803b15801561044457600080fd5b505af1158015610458573d6000803e3d6000fd5b505050506040513d601f19601f8201168201806040525081019061047c9190610dd7565b508273ffffffffffffffffffffffffffffffffffffffff166323b872dd308360000160009054906101000a900473ffffffffffffffffffffffffffffffffffffffff1684600101546040518463ffffffff1660e01b81526004016104e2939291906111bd565b600060405180830381600087803b1580156104fc57600080fd5b505af1158015610510573d6000803e3d6000fd5b505050507f43616e63656c6c6564000000000000000000000000000000000000000000000081600301819055507fee0bd10dbd5c2151f43ed2fa6af0584fbad842aa901d657f39fffd140822ae708360405161056c919061121d565b60405180910390a1505050565b6000600160008573ffffffffffffffffffffffffffffffffffffffff1673ffffffffffffffffffffffffffffffffffffffff16815260200190815260200160002090508060000160009054906101000a900473ffffffffffffffffffffffffffffffffffffffff1673ffffffffffffffffffffffffffffffffffffffff163373ffffffffffffffffffffffffffffffffffffffff161461064e576040517f08c379a00000000000000000000000000000000000000000000000000000000081526004016106459061139a565b60405180910390fd5b60008054906101000a900473ffffffffffffffffffffffffffffffffffffffff1673ffffffffffffffffffffffffffffffffffffffff1663c4d55c6885846040518363ffffffff1660e01b81526004016106a99291906112d9565b602060405180830381600087803b1580156106c357600080fd5b505af11580156106d7573d6000803e3d6000fd5b505050506040513d601f19601f820116820180604052508101906106fb9190610dd7565b50818160040160006101000a81548160ff0219169083151502179055507ff914bff822f938e06c0aaceb42bb4ca99085426a1e493b755e716662d12163ee84836040516107499291906111f4565b60405180910390a150505050565b60016020528060005260406000206000915090508060000160009054906101000a900473ffffffffffffffffffffffffffffffffffffffff16908060010154908060020154908060030154908060040160009054906101000a900460ff16905085565b6107c2610cfb565b6000600160008473ffffffffffffffffffffffffffffffffffffffff1673ffffffffffffffffffffffffffffffffffffffff1681526020019081526020016000206040518060a00160405290816000820160009054906101000a900473ffffffffffffffffffffffffffffffffffffffff1673ffffffffffffffffffffffffffffffffffffffff1673ffffffffffffffffffffffffffffffffffffffff1681526020016001820154815260200160028201548152602001600382015481526020016004820160009054906101000a900460ff161515151581525050905080915050919050565b6000600160008573ffffffffffffffffffffffffffffffffffffffff1673ffffffffffffffffffffffffffffffffffffffff16815260200190815260200160002090508060000160009054906101000a900473ffffffffffffffffffffffffffffffffffffffff1673ffffffffffffffffffffffffffffffffffffffff163373ffffffffffffffffffffffffffffffffffffffff161461097d576040517f08c379a00000000000000000000000000000000000000000000000000000000081526004016109749061139a565b60405180910390fd5b60008054906101000a900473ffffffffffffffffffffffffffffffffffffffff1673ffffffffffffffffffffffffffffffffffffffff1663bd8afa9f85846040518363ffffffff1660e01b81526004016109d892919061133e565b602060405180830381600087803b1580156109f257600080fd5b505af1158015610a06573d6000803e3d6000fd5b505050506040513d601f19601f82011682018060405250810190610a2a9190610dd7565b508373ffffffffffffffffffffffffffffffffffffffff166323b872dd333084600101546040518463ffffffff1660e01b8152600401610a6c939291906111bd565b600060405180830381600087803b158015610a8657600080fd5b505af1158015610a9a573d6000803e3d6000fd5b505050507f4f70656e0000000000000000000000000000000000000000000000000000000081600301819055507fee0bd10dbd5c2151f43ed2fa6af0584fbad842aa901d657f39fffd140822ae7084604051610af69190611244565b60405180910390a150505050565b600160026000828254610b179190611406565b925050819055506040518060a001604052808273ffffffffffffffffffffffffffffffffffffffff1681526020018481526020018381526020017f43616e63656c6c65640000000000000000000000000000000000000000000000815260200160001515815250600160008673ffffffffffffffffffffffffffffffffffffffff1673ffffffffffffffffffffffffffffffffffffffff16815260200190815260200160002060008201518160000160006101000a81548173ffffffffffffffffffffffffffffffffffffffff021916908373ffffffffffffffffffffffffffffffffffffffff16021790555060208201518160010155604082015181600201556060820151816003015560808201518160040160006101000a81548160ff02191690831515021790555090505050505050565b60008054906101000a900473ffffffffffffffffffffffffffffffffffffffff1681565b6000600160008573ffffffffffffffffffffffffffffffffffffffff1673ffffffffffffffffffffffffffffffffffffffff1681526020019081526020016000209050818160000160006101000a81548173ffffffffffffffffffffffffffffffffffffffff021916908373ffffffffffffffffffffffffffffffffffffffff16021790555050505050565b6040518060a00160405280600073ffffffffffffffffffffffffffffffffffffffff1681526020016000815260200160008152602001600080191681526020016000151581525090565b600081359050610d5481611662565b92915050565b600081359050610d6981611679565b92915050565b600081519050610d7e81611679565b92915050565b600081359050610d9381611690565b92915050565b600081359050610da8816116a7565b92915050565b600060208284031215610dc057600080fd5b6000610dce84828501610d45565b91505092915050565b600060208284031215610de957600080fd5b6000610df784828501610d6f565b91505092915050565b600060208284031215610e1257600080fd5b6000610e2084828501610d84565b91505092915050565b60008060408385031215610e3c57600080fd5b6000610e4a85828601610d84565b9250506020610e5b85828601610d99565b9150509250929050565b600080600060608486031215610e7a57600080fd5b6000610e8886828701610d84565b9350506020610e9986828701610d99565b9250506040610eaa86828701610d45565b9150509250925092565b600080600060608486031215610ec957600080fd5b6000610ed786828701610d84565b9350506020610ee886828701610d99565b9250506040610ef986828701610d5a565b9150509250925092565b600080600060608486031215610f1857600080fd5b6000610f2686828701610d84565b9350506020610f3786828701610d99565b9250506040610f4886828701610d99565b9150509250925092565b60008060008060808587031215610f6857600080fd5b6000610f7687828801610d84565b9450506020610f8787828801610d99565b9350506040610f9887828801610d99565b9250506060610fa987828801610d45565b91505092959194509250565b610fbe8161145c565b82525050565b610fcd8161145c565b82525050565b610fdc8161146e565b82525050565b610feb8161146e565b82525050565b610ffa8161147a565b82525050565b6110098161147a565b82525050565b611018816114c0565b82525050565b611027816114e4565b82525050565b61103681611508565b82525050565b60006110496026836113f5565b915061105482611549565b604082019050919050565b600061106c6021836113f5565b915061107782611598565b604082019050919050565b600061108f6012836113f5565b915061109a826115e7565b602082019050919050565b7f43616e63656c6c65640000000000000000000000000000000000000000000000815250565b60006110d86009836113f5565b91506110e382611610565b602082019050919050565b7f4f70656e00000000000000000000000000000000000000000000000000000000815250565b60006111216004836113f5565b915061112c82611639565b602082019050919050565b60a08201600082015161114d6000850182610fb5565b506020820151611160602085018261119f565b506040820151611173604085018261119f565b5060608201516111866060850182610ff1565b5060808201516111996080850182610fd3565b50505050565b6111a8816114b6565b82525050565b6111b7816114b6565b82525050565b60006060820190506111d26000830186610fc4565b6111df6020830185610fc4565b6111ec60408301846111ae565b949350505050565b60006040820190506112096000830185610fc4565b6112166020830184610fe2565b9392505050565b60006040820190506112326000830184610fc4565b61123e602083016110a5565b92915050565b60006040820190506112596000830184610fc4565b611265602083016110ee565b92915050565b600060a0820190506112806000830188610fc4565b61128d60208301876111ae565b61129a60408301866111ae565b6112a76060830185611000565b6112b46080830184610fe2565b9695505050505050565b60006020820190506112d3600083018461100f565b92915050565b60006040820190506112ee600083018561101e565b6112fb6020830184610fe2565b9392505050565b6000606082019050611317600083018561101e565b8181036020830152611328816110cb565b9050611337604083018461102d565b9392505050565b6000606082019050611353600083018561101e565b818103602083015261136481611114565b905061137360408301846111ae565b9392505050565b600060208201905081810360008301526113938161103c565b9050919050565b600060208201905081810360008301526113b38161105f565b9050919050565b600060208201905081810360008301526113d381611082565b9050919050565b600060a0820190506113ef6000830184611137565b92915050565b600082825260208201905092915050565b6000611411826114b6565b915061141c836114b6565b9250827fffffffffffffffffffffffffffffffffffffffffffffffffffffffffffffffff038211156114515761145061151a565b5b828201905092915050565b600061146782611496565b9050919050565b60008115159050919050565b6000819050919050565b600061148f8261145c565b9050919050565b600073ffffffffffffffffffffffffffffffffffffffff82169050919050565b6000819050919050565b60006114cb826114d2565b9050919050565b60006114dd82611496565b9050919050565b60006114ef826114f6565b9050919050565b600061150182611496565b9050919050565b6000611513826114b6565b9050919050565b7f4e487b7100000000000000000000000000000000000000000000000000000000600052601160045260246000fd5b7f54726164652063616e2062652063616e63656c6c6564206f6e6c79206279207360008201527f656c6c65722e0000000000000000000000000000000000000000000000000000602082015250565b7f54726164652063616e206265206f70656e206f6e6c792062792073656c6c657260008201527f2e00000000000000000000000000000000000000000000000000000000000000602082015250565b7f5472616465206973206e6f74204f70656e2e0000000000000000000000000000600082015250565b7f43616e63656c6c65640000000000000000000000000000000000000000000000600082015250565b7f4f70656e00000000000000000000000000000000000000000000000000000000600082015250565b61166b8161145c565b811461167657600080fd5b50565b6116828161146e565b811461168d57600080fd5b50565b61169981611484565b81146116a457600080fd5b50565b6116b0816114b6565b81146116bb57600080fd5b5056fea26469706673582212200e76e47be6bcecf5643e48b77b71aae2c29830a01a41bb579f4e63f1390c7e2f64736f6c63430008020033",
  "immutableReferences": {},
  "source": "// SPDX-License-Identifier: MIT\r\npragma solidity ^0.8.0;\r\npragma experimental ABIEncoderV2;\r\n\r\nimport {PhotoNFT} from \"./PhotoNFT.sol\";\r\nimport {PhotoNFTData} from \"./PhotoNFTData.sol\";\r\n\r\n/**\r\n * @title - PhotoNFTTradable contract\r\n * @notice - This contract has role that put on sale of photoNFTs\r\n */\r\ncontract PhotoNFTTradable {\r\n    event TradeStatusChange(address ad, bytes32 status);\r\n    event TradePremiumStatusChange(address ad, bool status);\r\n    event OpenTradeInfo(address owner, address sender);\r\n\r\n    //cjh\r\n    // PhotoNFT public photoNFT;\r\n    PhotoNFTData public photoNFTData;\r\n\r\n    struct Trade {\r\n        address seller;\r\n        uint256 photoId; // PhotoNFT's token ID\r\n        uint256 photoPrice;\r\n        bytes32 status; // Open, Executed, Cancelled\r\n        bool premiumStatus; // false : not , true: premium\r\n    }\r\n    mapping(address => Trade) public trades; // [Key]: PhotoNFT's token ID\r\n\r\n    uint256 tradeCounter;\r\n\r\n    constructor(PhotoNFTData _photoNFTData) public {\r\n        photoNFTData = _photoNFTData;\r\n        tradeCounter = 0;\r\n    }\r\n\r\n    /**\r\n     * @notice - This method is only executed when a seller create a new PhotoNFT\r\n     * @dev Opens a new trade. Puts _photoId in escrow.\r\n     * @param _photoId The id for the photoId to trade.\r\n     * @param _photoPrice The amount of currency for which to trade the photoId.\r\n     */\r\n    function registerTradeWhenCreateNewPhotoNFT(\r\n        PhotoNFT photoNFT,\r\n        uint256 _photoId,\r\n        uint256 _photoPrice,\r\n        address seller\r\n    ) public {\r\n        // photoNFT.transferFrom(msg.sender, address(this), _photoId);\r\n\r\n        tradeCounter += 1; /// [Note]: New. Trade count is started from \"1\". This is to align photoId\r\n\r\n        //cjh\r\n        // trades[tradeCounter] = Trade({\r\n        trades[address(photoNFT)] = Trade({\r\n            seller: seller,\r\n            photoId: _photoId,\r\n            photoPrice: _photoPrice,\r\n            status: \"Cancelled\",\r\n            premiumStatus: false\r\n        });\r\n        //tradeCounter += 1;  /// [Note]: Original\r\n        // emit TradeStatusChange(address(photoNFT), \"Open\");\r\n    }\r\n\r\n    /**\r\n     * @dev Opens a trade by the seller.\r\n     */\r\n    function openTrade(\r\n        PhotoNFT photoNFT,\r\n        uint256 _photoId,\r\n        uint256 price\r\n    ) public {\r\n        Trade storage trade = trades[address(photoNFT)];\r\n        require(\r\n            msg.sender == trade.seller,\r\n            \"Trade can be open only by seller.\"\r\n        );\r\n        // emit OpenTradeInfo(msg.sender, trade.seller);\r\n\r\n        photoNFTData.updateStatus(photoNFT, \"Open\", price);\r\n        photoNFT.transferFrom(msg.sender, address(this), trade.photoId);\r\n        // trades[photoNFT].status = \"Open\";\r\n        //cjh\r\n        trade.status = \"Open\";\r\n        emit TradeStatusChange(address(photoNFT), \"Open\");\r\n    }\r\n\r\n    /**\r\n     * @dev Cancels a trade by the seller.\r\n     */\r\n    function cancelTrade(PhotoNFT photoNFT, uint256 _photoId) public {\r\n        Trade storage trade = trades[address(photoNFT)];\r\n\r\n        require(\r\n            msg.sender == trade.seller,\r\n            \"Trade can be cancelled only by seller.\"\r\n        );\r\n        // require(trade.status == \"Open\", \"Trade is not Open.\");\r\n\r\n        photoNFTData.updateStatus(photoNFT, \"Cancelled\", 0);\r\n        photoNFT.transferFrom(address(this), trade.seller, trade.photoId);\r\n        trade.status = \"Cancelled\";\r\n        emit TradeStatusChange(address(photoNFT), \"Cancelled\");\r\n    }\r\n\r\n    /**\r\n     * @dev Opens a trade by the seller.\r\n     */\r\n    function updatePremiumStatus(\r\n        PhotoNFT photoNFT,\r\n        uint256 _photoId,\r\n        bool _newState\r\n    ) public {\r\n        Trade storage trade = trades[address(photoNFT)];\r\n        require(\r\n            msg.sender == trade.seller,\r\n            \"Trade can be open only by seller.\"\r\n        );\r\n        photoNFTData.updatePremiumStatus(photoNFT, _newState);\r\n\r\n        trade.premiumStatus = _newState;\r\n        emit TradePremiumStatusChange(address(photoNFT), _newState);\r\n    }\r\n\r\n    /**\r\n     * @dev Executes a trade. Must have approved this contract to transfer the amount of currency specified to the seller. Transfers ownership of the photoId to the filler.\r\n     */\r\n    function transferOwnershipOfPhotoNFT(\r\n        PhotoNFT _photoNFT,\r\n        uint256 _photoId,\r\n        address _buyer\r\n    ) public {\r\n        PhotoNFT photoNFT = _photoNFT;\r\n\r\n        Trade memory trade = getTrade(_photoNFT);\r\n        require(trade.status == \"Open\", \"Trade is not Open.\");\r\n\r\n        _updateSeller(_photoNFT, _photoId, _buyer);\r\n\r\n        //cjh\r\n\r\n        photoNFT.transferFrom(address(this), _buyer, trade.photoId);\r\n        trade.status = \"Cancelled\";\r\n        emit TradeStatusChange(address(_photoNFT), \"Cancelled\");\r\n    }\r\n\r\n    function _updateSeller(\r\n        PhotoNFT photoNFT,\r\n        uint256 _photoId,\r\n        address _newSeller\r\n    ) internal {\r\n        Trade storage trade = trades[address(photoNFT)];\r\n        trade.seller = _newSeller;\r\n    }\r\n\r\n    /**\r\n     * @dev - Returns the details for a trade.\r\n     */\r\n    function getTrade(PhotoNFT photoNFT)\r\n        public\r\n        view\r\n        returns (Trade memory trade_)\r\n    {\r\n        Trade memory trade = trades[address(photoNFT)];\r\n        return trade;\r\n        //return (trade.seller, trade.photoId, trade.photoPrice, trade.status);\r\n    }\r\n}\r\n",
  "sourcePath": "C:\\Users\\Administrator\\Downloads\\lofi_marketplace_frontend\\contracts\\PhotoNFTTradable.sol",
  "compiler": {
    "name": "solc",
    "version": "0.8.2+commit.661d1103.Emscripten.clang"
  },
  "schemaVersion": "3.4.5",
  "updatedAt": "2022-02-21T16:29:05.172Z",
  "networkType": "ethereum",
  "devdoc": {
    "kind": "dev",
    "methods": {
      "cancelTrade(address,uint256)": {
        "details": "Cancels a trade by the seller."
      },
      "getTrade(address)": {
        "details": "- Returns the details for a trade."
      },
      "openTrade(address,uint256,uint256)": {
        "details": "Opens a trade by the seller."
      },
      "registerTradeWhenCreateNewPhotoNFT(address,uint256,uint256,address)": {
        "details": "Opens a new trade. Puts _photoId in escrow.",
        "params": {
          "_photoId": "The id for the photoId to trade.",
          "_photoPrice": "The amount of currency for which to trade the photoId."
        }
      },
      "transferOwnershipOfPhotoNFT(address,uint256,address)": {
        "details": "Executes a trade. Must have approved this contract to transfer the amount of currency specified to the seller. Transfers ownership of the photoId to the filler."
      },
      "updatePremiumStatus(address,uint256,bool)": {
        "details": "Opens a trade by the seller."
      }
    },
    "title": "- PhotoNFTTradable contract",
    "version": 1
  },
  "userdoc": {
    "kind": "user",
    "methods": {
      "registerTradeWhenCreateNewPhotoNFT(address,uint256,uint256,address)": {
        "notice": "- This method is only executed when a seller create a new PhotoNFT"
      }
    },
    "notice": "- This contract has role that put on sale of photoNFTs",
    "version": 1
  }
}