{
  "contractName": "SupportsInterfaceWithLookupMock",
  "abi": [
    {
      "inputs": [],
      "stateMutability": "nonpayable",
      "type": "constructor"
    },
    {
      "inputs": [],
      "name": "INTERFACE_ID_ERC165",
      "outputs": [
        {
          "internalType": "bytes4",
          "name": "",
          "type": "bytes4"
        }
      ],
      "stateMutability": "view",
      "type": "function"
    },
    {
      "inputs": [
        {
          "internalType": "bytes4",
          "name": "interfaceId",
          "type": "bytes4"
        }
      ],
      "name": "supportsInterface",
      "outputs": [
        {
          "internalType": "bool",
          "name": "",
          "type": "bool"
        }
      ],
      "stateMutability": "view",
      "type": "function"
    }
  ],
  "bytecode": "0x608060405234801561001057600080fd5b506100276301ffc9a760e01b61002c60201b60201c565b6101a4565b63ffffffff60e01b817bffffffffffffffffffffffffffffffffffffffffffffffffffffffff19161415610095576040517f08c379a000000000000000000000000000000000000000000000000000000000815260040161008c90610124565b60405180910390fd5b6001600080837bffffffffffffffffffffffffffffffffffffffffffffffffffffffff19167bffffffffffffffffffffffffffffffffffffffffffffffffffffffff1916815260200190815260200160002060006101000a81548160ff02191690831515021790555050565b600061010e602f83610144565b915061011982610155565b604082019050919050565b6000602082019050818103600083015261013d81610101565b9050919050565b600082825260208201905092915050565b7f455243313635496e7465726661636573537570706f727465643a20696e76616c60008201527f696420696e746572666163652069640000000000000000000000000000000000602082015250565b610212806101b36000396000f3fe608060405234801561001057600080fd5b50600436106100365760003560e01c806301ffc9a71461003b57806334d7006c1461006b575b600080fd5b61005560048036038101906100509190610110565b610089565b6040516100629190610157565b60405180910390f35b6100736100f0565b6040516100809190610172565b60405180910390f35b6000806000837bffffffffffffffffffffffffffffffffffffffffffffffffffffffff19167bffffffffffffffffffffffffffffffffffffffffffffffffffffffff1916815260200190815260200160002060009054906101000a900460ff169050919050565b6301ffc9a760e01b81565b60008135905061010a816101c5565b92915050565b60006020828403121561012257600080fd5b6000610130848285016100fb565b91505092915050565b6101428161018d565b82525050565b61015181610199565b82525050565b600060208201905061016c6000830184610139565b92915050565b60006020820190506101876000830184610148565b92915050565b60008115159050919050565b60007fffffffff0000000000000000000000000000000000000000000000000000000082169050919050565b6101ce81610199565b81146101d957600080fd5b5056fea264697066735822122088662656377b9f40aa79f74f4471fcade04df6d3fcad766979b487dd8a4894bc64736f6c63430008020033",
  "immutableReferences": {},
  "source": "// SPDX-License-Identifier: MIT\r\n\r\npragma solidity ^0.8.0;\r\n\r\nimport \"../../utils/introspection/IERC165.sol\";\r\n\r\n/**\r\n * https://eips.ethereum.org/EIPS/eip-214#specification\r\n * From the specification:\r\n * > Any attempts to make state-changing operations inside an execution instance with STATIC set to true will instead\r\n * throw an exception.\r\n * > These operations include [...], LOG0, LOG1, LOG2, [...]\r\n *\r\n * therefore, because this contract is staticcall'd we need to not emit events (which is how solidity-coverage works)\r\n * solidity-coverage ignores the /mocks folder, so we duplicate its implementation here to avoid instrumenting it\r\n */\r\ncontract SupportsInterfaceWithLookupMock is IERC165 {\r\n    /*\r\n     * bytes4(keccak256('supportsInterface(bytes4)')) == 0x01ffc9a7\r\n     */\r\n    bytes4 public constant INTERFACE_ID_ERC165 = 0x01ffc9a7;\r\n\r\n    /**\r\n     * @dev A mapping of interface id to whether or not it's supported.\r\n     */\r\n    mapping(bytes4 => bool) private _supportedInterfaces;\r\n\r\n    /**\r\n     * @dev A contract implementing SupportsInterfaceWithLookup\r\n     * implement ERC165 itself.\r\n     */\r\n    constructor() {\r\n        _registerInterface(INTERFACE_ID_ERC165);\r\n    }\r\n\r\n    /**\r\n     * @dev Implement supportsInterface(bytes4) using a lookup table.\r\n     */\r\n    function supportsInterface(bytes4 interfaceId) public view override returns (bool) {\r\n        return _supportedInterfaces[interfaceId];\r\n    }\r\n\r\n    /**\r\n     * @dev Private method for registering an interface.\r\n     */\r\n    function _registerInterface(bytes4 interfaceId) internal {\r\n        require(interfaceId != 0xffffffff, \"ERC165InterfacesSupported: invalid interface id\");\r\n        _supportedInterfaces[interfaceId] = true;\r\n    }\r\n}\r\n\r\ncontract ERC165InterfacesSupported is SupportsInterfaceWithLookupMock {\r\n    constructor(bytes4[] memory interfaceIds) {\r\n        for (uint256 i = 0; i < interfaceIds.length; i++) {\r\n            _registerInterface(interfaceIds[i]);\r\n        }\r\n    }\r\n}\r\n",
  "sourcePath": "C:\\Users\\Administrator\\Downloads\\lofi_marketplace_frontend\\contracts\\openzeppelin-solidity\\contracts\\mocks\\ERC165\\ERC165InterfacesSupported.sol",
  "compiler": {
    "name": "solc",
    "version": "0.8.2+commit.661d1103.Emscripten.clang"
  },
  "schemaVersion": "3.4.5",
  "updatedAt": "2022-02-21T16:24:46.250Z",
  "devdoc": {
    "kind": "dev",
    "methods": {
      "constructor": {
        "details": "A contract implementing SupportsInterfaceWithLookup implement ERC165 itself."
      },
      "supportsInterface(bytes4)": {
        "details": "Implement supportsInterface(bytes4) using a lookup table."
      }
    },
    "stateVariables": {
      "_supportedInterfaces": {
        "details": "A mapping of interface id to whether or not it's supported."
      }
    },
    "version": 1
  },
  "userdoc": {
    "kind": "user",
    "methods": {},
    "notice": "https://eips.ethereum.org/EIPS/eip-214#specification From the specification: > Any attempts to make state-changing operations inside an execution instance with STATIC set to true will instead throw an exception. > These operations include [...], LOG0, LOG1, LOG2, [...] therefore, because this contract is staticcall'd we need to not emit events (which is how solidity-coverage works) solidity-coverage ignores the /mocks folder, so we duplicate its implementation here to avoid instrumenting it",
    "version": 1
  }
}