{
  "contractName": "UUPSUpgradeableBrokenMock",
  "abi": [
    {
      "anonymous": false,
      "inputs": [
        {
          "indexed": false,
          "internalType": "address",
          "name": "previousAdmin",
          "type": "address"
        },
        {
          "indexed": false,
          "internalType": "address",
          "name": "newAdmin",
          "type": "address"
        }
      ],
      "name": "AdminChanged",
      "type": "event"
    },
    {
      "anonymous": false,
      "inputs": [
        {
          "indexed": true,
          "internalType": "address",
          "name": "beacon",
          "type": "address"
        }
      ],
      "name": "BeaconUpgraded",
      "type": "event"
    },
    {
      "anonymous": false,
      "inputs": [
        {
          "indexed": true,
          "internalType": "address",
          "name": "implementation",
          "type": "address"
        }
      ],
      "name": "Upgraded",
      "type": "event"
    },
    {
      "inputs": [],
      "name": "current",
      "outputs": [
        {
          "internalType": "uint256",
          "name": "",
          "type": "uint256"
        }
      ],
      "stateMutability": "view",
      "type": "function"
    },
    {
      "inputs": [],
      "name": "decrement",
      "outputs": [],
      "stateMutability": "nonpayable",
      "type": "function"
    },
    {
      "inputs": [],
      "name": "increment",
      "outputs": [],
      "stateMutability": "nonpayable",
      "type": "function"
    },
    {
      "inputs": [],
      "name": "reset",
      "outputs": [],
      "stateMutability": "nonpayable",
      "type": "function"
    },
    {
      "inputs": [
        {
          "internalType": "address",
          "name": "",
          "type": "address"
        }
      ],
      "name": "upgradeTo",
      "outputs": [],
      "stateMutability": "nonpayable",
      "type": "function"
    },
    {
      "inputs": [
        {
          "internalType": "address",
          "name": "",
          "type": "address"
        },
        {
          "internalType": "bytes",
          "name": "",
          "type": "bytes"
        }
      ],
      "name": "upgradeToAndCall",
      "outputs": [],
      "stateMutability": "payable",
      "type": "function"
    }
  ],
  "bytecode": "0x60a06040523073ffffffffffffffffffffffffffffffffffffffff1660809073ffffffffffffffffffffffffffffffffffffffff1660601b81525034801561004657600080fd5b5060805160601c6104d8610062600039600050506104d86000f3fe6080604052600436106100555760003560e01c80632baeceb71461005a5780633659cfe6146100715780634f1ef2861461009a5780639fa6a6e3146100b6578063d09de08a146100e1578063d826f88f146100f8575b600080fd5b34801561006657600080fd5b5061006f61010f565b005b34801561007d57600080fd5b5061009860048036038101906100939190610255565b61011b565b005b6100b460048036038101906100af919061027e565b61011e565b005b3480156100c257600080fd5b506100cb610122565b6040516100d89190610324565b60405180910390f35b3480156100ed57600080fd5b506100f6610133565b005b34801561010457600080fd5b5061010d61013f565b005b610119600061014b565b565b50565b5050565b600061012e60006101a7565b905090565b61013d60006101b5565b565b61014960006101cb565b565b60008160000154905060008111610197576040517f08c379a000000000000000000000000000000000000000000000000000000000815260040161018e90610304565b60405180910390fd5b6001810382600001819055505050565b600081600001549050919050565b6001816000016000828254019250508190555050565b6000816000018190555050565b60006101eb6101e684610364565b61033f565b90508281526020810184848401111561020357600080fd5b61020e8482856103e2565b509392505050565b6000813590506102258161048b565b92915050565b600082601f83011261023c57600080fd5b813561024c8482602086016101d8565b91505092915050565b60006020828403121561026757600080fd5b600061027584828501610216565b91505092915050565b6000806040838503121561029157600080fd5b600061029f85828601610216565b925050602083013567ffffffffffffffff8111156102bc57600080fd5b6102c88582860161022b565b9150509250929050565b60006102df601b83610395565b91506102ea82610462565b602082019050919050565b6102fe816103d8565b82525050565b6000602082019050818103600083015261031d816102d2565b9050919050565b600060208201905061033960008301846102f5565b92915050565b600061034961035a565b905061035582826103f1565b919050565b6000604051905090565b600067ffffffffffffffff82111561037f5761037e610422565b5b61038882610451565b9050602081019050919050565b600082825260208201905092915050565b60006103b1826103b8565b9050919050565b600073ffffffffffffffffffffffffffffffffffffffff82169050919050565b6000819050919050565b82818337600083830152505050565b6103fa82610451565b810181811067ffffffffffffffff8211171561041957610418610422565b5b80604052505050565b7f4e487b7100000000000000000000000000000000000000000000000000000000600052604160045260246000fd5b6000601f19601f8301169050919050565b7f436f756e7465723a2064656372656d656e74206f766572666c6f770000000000600082015250565b610494816103a6565b811461049f57600080fd5b5056fea264697066735822122044af5adc27be7d0d9713e3a40a801f5eecd60fba2fb740bcde6456c8d389cdab64736f6c63430008020033",
  "immutableReferences": {},
  "source": "// SPDX-License-Identifier: MIT\r\n\r\npragma solidity ^0.8.0;\r\n\r\nimport \"../CountersImpl.sol\";\r\nimport \"../../proxy/utils/UUPSUpgradeable.sol\";\r\n\r\ncontract UUPSUpgradeableMock is CountersImpl, UUPSUpgradeable {\r\n    // Not having any checks in this function is dangerous! Do not do this outside tests!\r\n    function _authorizeUpgrade(address) internal virtual override {}\r\n}\r\n\r\ncontract UUPSUpgradeableUnsafeMock is UUPSUpgradeableMock {\r\n    function upgradeTo(address newImplementation) external virtual override {\r\n        ERC1967Upgrade._upgradeToAndCall(newImplementation, bytes(\"\"), false);\r\n    }\r\n\r\n    function upgradeToAndCall(address newImplementation, bytes memory data) external payable virtual override {\r\n        ERC1967Upgrade._upgradeToAndCall(newImplementation, data, false);\r\n    }\r\n}\r\n\r\ncontract UUPSUpgradeableBrokenMock is UUPSUpgradeableMock {\r\n    function upgradeTo(address) external virtual override {\r\n        // pass\r\n    }\r\n\r\n    function upgradeToAndCall(address, bytes memory) external payable virtual override {\r\n        // pass\r\n    }\r\n}\r\n",
  "sourcePath": "C:\\Users\\Administrator\\Downloads\\lofi_marketplace_frontend\\contracts\\openzeppelin-solidity\\contracts\\mocks\\UUPS\\TestInProd.sol",
  "compiler": {
    "name": "solc",
    "version": "0.8.2+commit.661d1103.Emscripten.clang"
  },
  "schemaVersion": "3.4.5",
  "updatedAt": "2022-02-21T16:24:46.958Z",
  "devdoc": {
    "kind": "dev",
    "methods": {},
    "version": 1
  },
  "userdoc": {
    "kind": "user",
    "methods": {},
    "version": 1
  }
}